{
	"tasks/Task_11.sol": {
		"Task_11": {
			"abi": [
				{
					"inputs": [
						{
							"internalType": "uint256",
							"name": "_targetAmount",
							"type": "uint256"
						}
					],
					"stateMutability": "nonpayable",
					"type": "constructor"
				},
				{
					"anonymous": false,
					"inputs": [
						{
							"indexed": false,
							"internalType": "uint256",
							"name": "totalDeposits",
							"type": "uint256"
						}
					],
					"name": "Closed",
					"type": "event"
				},
				{
					"anonymous": false,
					"inputs": [
						{
							"indexed": true,
							"internalType": "address",
							"name": "user",
							"type": "address"
						},
						{
							"indexed": false,
							"internalType": "uint256",
							"name": "amount",
							"type": "uint256"
						},
						{
							"indexed": false,
							"internalType": "uint256",
							"name": "totalDeposits",
							"type": "uint256"
						}
					],
					"name": "Deposited",
					"type": "event"
				},
				{
					"anonymous": false,
					"inputs": [
						{
							"indexed": true,
							"internalType": "address",
							"name": "user",
							"type": "address"
						},
						{
							"indexed": false,
							"internalType": "uint256",
							"name": "amount",
							"type": "uint256"
						},
						{
							"indexed": false,
							"internalType": "uint256",
							"name": "totalDeposits",
							"type": "uint256"
						}
					],
					"name": "Withdrawn",
					"type": "event"
				},
				{
					"inputs": [],
					"name": "deposit",
					"outputs": [],
					"stateMutability": "payable",
					"type": "function"
				},
				{
					"inputs": [
						{
							"internalType": "address",
							"name": "",
							"type": "address"
						}
					],
					"name": "deposits",
					"outputs": [
						{
							"internalType": "uint256",
							"name": "",
							"type": "uint256"
						}
					],
					"stateMutability": "view",
					"type": "function"
				},
				{
					"inputs": [],
					"name": "owner",
					"outputs": [
						{
							"internalType": "address",
							"name": "",
							"type": "address"
						}
					],
					"stateMutability": "view",
					"type": "function"
				},
				{
					"inputs": [],
					"name": "status",
					"outputs": [
						{
							"internalType": "enum Task_11.Status",
							"name": "",
							"type": "uint8"
						}
					],
					"stateMutability": "view",
					"type": "function"
				},
				{
					"inputs": [],
					"name": "targetAmount",
					"outputs": [
						{
							"internalType": "uint256",
							"name": "",
							"type": "uint256"
						}
					],
					"stateMutability": "view",
					"type": "function"
				},
				{
					"inputs": [],
					"name": "totalUserDeposits",
					"outputs": [
						{
							"internalType": "uint256",
							"name": "",
							"type": "uint256"
						}
					],
					"stateMutability": "view",
					"type": "function"
				},
				{
					"inputs": [],
					"name": "withdraw",
					"outputs": [],
					"stateMutability": "nonpayable",
					"type": "function"
				}
			],
			"devdoc": {
				"kind": "dev",
				"methods": {},
				"version": 1
			},
			"evm": {
				"assembly": "    /* \"tasks/Task_11.sol\":57:2727  contract Task_11 {... */\n  mstore(0x40, 0x80)\n    /* \"tasks/Task_11.sol\":202:213  Status.Open */\n  0x00\n    /* \"tasks/Task_11.sol\":179:213  Status public status = Status.Open */\n  0x00\n  exp(0x0100, 0x14)\n  dup2\n  sload\n  dup2\n  0xff\n  mul\n  not\n  and\n  swap1\n  dup4\n  0x01\n  dup2\n  gt\n  iszero\n  tag_1\n  jumpi\n  tag_2\n  tag_3\n  jump\t// in\ntag_2:\ntag_1:\n  mul\n  or\n  swap1\n  sstore\n  pop\n    /* \"tasks/Task_11.sol\":776:884  constructor(uint256 _targetAmount) {... */\n  callvalue\n  dup1\n  iszero\n  tag_4\n  jumpi\n  revert(0x00, 0x00)\ntag_4:\n  pop\n  mload(0x40)\n  sub(codesize, bytecodeSize)\n  dup1\n  bytecodeSize\n  dup4\n  codecopy\n  dup2\n  dup2\n  add\n  0x40\n  mstore\n  dup2\n  add\n  swap1\n  tag_5\n  swap2\n  swap1\n  tag_6\n  jump\t// in\ntag_5:\n    /* \"tasks/Task_11.sol\":829:839  msg.sender */\n  caller\n    /* \"tasks/Task_11.sol\":821:826  owner */\n  0x00\n  0x00\n    /* \"tasks/Task_11.sol\":821:839  owner = msg.sender */\n  0x0100\n  exp\n  dup2\n  sload\n  dup2\n  0xffffffffffffffffffffffffffffffffffffffff\n  mul\n  not\n  and\n  swap1\n  dup4\n  0xffffffffffffffffffffffffffffffffffffffff\n  and\n  mul\n  or\n  swap1\n  sstore\n  pop\n    /* \"tasks/Task_11.sol\":864:877  _targetAmount */\n  dup1\n    /* \"tasks/Task_11.sol\":849:861  targetAmount */\n  0x02\n    /* \"tasks/Task_11.sol\":849:877  targetAmount = _targetAmount */\n  dup2\n  swap1\n  sstore\n  pop\n    /* \"tasks/Task_11.sol\":776:884  constructor(uint256 _targetAmount) {... */\n  pop\n    /* \"tasks/Task_11.sol\":57:2727  contract Task_11 {... */\n  jump(tag_9)\n    /* \"#utility.yul\":7:187   */\ntag_3:\n    /* \"#utility.yul\":55:132   */\n  0x4e487b7100000000000000000000000000000000000000000000000000000000\n    /* \"#utility.yul\":52:53   */\n  0x00\n    /* \"#utility.yul\":45:133   */\n  mstore\n    /* \"#utility.yul\":152:156   */\n  0x21\n    /* \"#utility.yul\":149:150   */\n  0x04\n    /* \"#utility.yul\":142:157   */\n  mstore\n    /* \"#utility.yul\":176:180   */\n  0x24\n    /* \"#utility.yul\":173:174   */\n  0x00\n    /* \"#utility.yul\":166:181   */\n  revert\n    /* \"#utility.yul\":274:391   */\ntag_11:\n    /* \"#utility.yul\":383:384   */\n  0x00\n    /* \"#utility.yul\":380:381   */\n  0x00\n    /* \"#utility.yul\":373:385   */\n  revert\n    /* \"#utility.yul\":520:597   */\ntag_13:\n    /* \"#utility.yul\":557:564   */\n  0x00\n    /* \"#utility.yul\":586:591   */\n  dup2\n    /* \"#utility.yul\":575:591   */\n  swap1\n  pop\n    /* \"#utility.yul\":520:597   */\n  swap2\n  swap1\n  pop\n  jump\t// out\n    /* \"#utility.yul\":603:725   */\ntag_14:\n    /* \"#utility.yul\":676:700   */\n  tag_23\n    /* \"#utility.yul\":694:699   */\n  dup2\n    /* \"#utility.yul\":676:700   */\n  tag_13\n  jump\t// in\ntag_23:\n    /* \"#utility.yul\":669:674   */\n  dup2\n    /* \"#utility.yul\":666:701   */\n  eq\n    /* \"#utility.yul\":656:719   */\n  tag_24\n  jumpi\n    /* \"#utility.yul\":715:716   */\n  0x00\n    /* \"#utility.yul\":712:713   */\n  0x00\n    /* \"#utility.yul\":705:717   */\n  revert\n    /* \"#utility.yul\":656:719   */\ntag_24:\n    /* \"#utility.yul\":603:725   */\n  pop\n  jump\t// out\n    /* \"#utility.yul\":731:874   */\ntag_15:\n    /* \"#utility.yul\":788:793   */\n  0x00\n    /* \"#utility.yul\":819:825   */\n  dup2\n    /* \"#utility.yul\":813:826   */\n  mload\n    /* \"#utility.yul\":804:826   */\n  swap1\n  pop\n    /* \"#utility.yul\":835:868   */\n  tag_26\n    /* \"#utility.yul\":862:867   */\n  dup2\n    /* \"#utility.yul\":835:868   */\n  tag_14\n  jump\t// in\ntag_26:\n    /* \"#utility.yul\":731:874   */\n  swap3\n  swap2\n  pop\n  pop\n  jump\t// out\n    /* \"#utility.yul\":880:1231   */\ntag_6:\n    /* \"#utility.yul\":950:956   */\n  0x00\n    /* \"#utility.yul\":999:1001   */\n  0x20\n    /* \"#utility.yul\":987:996   */\n  dup3\n    /* \"#utility.yul\":978:985   */\n  dup5\n    /* \"#utility.yul\":974:997   */\n  sub\n    /* \"#utility.yul\":970:1002   */\n  slt\n    /* \"#utility.yul\":967:1086   */\n  iszero\n  tag_28\n  jumpi\n    /* \"#utility.yul\":1005:1084   */\n  tag_29\n  tag_11\n  jump\t// in\ntag_29:\n    /* \"#utility.yul\":967:1086   */\ntag_28:\n    /* \"#utility.yul\":1125:1126   */\n  0x00\n    /* \"#utility.yul\":1150:1214   */\n  tag_30\n    /* \"#utility.yul\":1206:1213   */\n  dup5\n    /* \"#utility.yul\":1197:1203   */\n  dup3\n    /* \"#utility.yul\":1186:1195   */\n  dup6\n    /* \"#utility.yul\":1182:1204   */\n  add\n    /* \"#utility.yul\":1150:1214   */\n  tag_15\n  jump\t// in\ntag_30:\n    /* \"#utility.yul\":1140:1214   */\n  swap2\n  pop\n    /* \"#utility.yul\":1096:1224   */\n  pop\n    /* \"#utility.yul\":880:1231   */\n  swap3\n  swap2\n  pop\n  pop\n  jump\t// out\n    /* \"tasks/Task_11.sol\":57:2727  contract Task_11 {... */\ntag_9:\n  dataSize(sub_0)\n  dup1\n  dataOffset(sub_0)\n  0x00\n  codecopy\n  0x00\n  return\nstop\n\nsub_0: assembly {\n        /* \"tasks/Task_11.sol\":57:2727  contract Task_11 {... */\n      mstore(0x40, 0x80)\n      jumpi(tag_1, lt(calldatasize, 0x04))\n      shr(0xe0, calldataload(0x00))\n      dup1\n      0x8da5cb5b\n      gt\n      tag_9\n      jumpi\n      dup1\n      0x8da5cb5b\n      eq\n      tag_5\n      jumpi\n      dup1\n      0x953b8fb8\n      eq\n      tag_6\n      jumpi\n      dup1\n      0xd0e30db0\n      eq\n      tag_7\n      jumpi\n      dup1\n      0xfc7e286d\n      eq\n      tag_8\n      jumpi\n      jump(tag_1)\n    tag_9:\n      dup1\n      0x200d2ed2\n      eq\n      tag_2\n      jumpi\n      dup1\n      0x3ccfd60b\n      eq\n      tag_3\n      jumpi\n      dup1\n      0x7843bc78\n      eq\n      tag_4\n      jumpi\n    tag_1:\n      revert(0x00, 0x00)\n        /* \"tasks/Task_11.sol\":179:213  Status public status = Status.Open */\n    tag_2:\n      callvalue\n      dup1\n      iszero\n      tag_10\n      jumpi\n      revert(0x00, 0x00)\n    tag_10:\n      pop\n      tag_11\n      tag_12\n      jump\t// in\n    tag_11:\n      mload(0x40)\n      tag_13\n      swap2\n      swap1\n      tag_14\n      jump\t// in\n    tag_13:\n      mload(0x40)\n      dup1\n      swap2\n      sub\n      swap1\n      return\n        /* \"tasks/Task_11.sol\":2255:2725  function withdraw() external onlyOwner whenClosed {... */\n    tag_3:\n      callvalue\n      dup1\n      iszero\n      tag_15\n      jumpi\n      revert(0x00, 0x00)\n    tag_15:\n      pop\n      tag_16\n      tag_17\n      jump\t// in\n    tag_16:\n      stop\n        /* \"tasks/Task_11.sol\":291:323  uint256 public totalUserDeposits */\n    tag_4:\n      callvalue\n      dup1\n      iszero\n      tag_18\n      jumpi\n      revert(0x00, 0x00)\n    tag_18:\n      pop\n      tag_19\n      tag_20\n      jump\t// in\n    tag_19:\n      mload(0x40)\n      tag_21\n      swap2\n      swap1\n      tag_22\n      jump\t// in\n    tag_21:\n      mload(0x40)\n      dup1\n      swap2\n      sub\n      swap1\n      return\n        /* \"tasks/Task_11.sol\":80:100  address public owner */\n    tag_5:\n      callvalue\n      dup1\n      iszero\n      tag_23\n      jumpi\n      revert(0x00, 0x00)\n    tag_23:\n      pop\n      tag_24\n      tag_25\n      jump\t// in\n    tag_24:\n      mload(0x40)\n      tag_26\n      swap2\n      swap1\n      tag_27\n      jump\t// in\n    tag_26:\n      mload(0x40)\n      dup1\n      swap2\n      sub\n      swap1\n      return\n        /* \"tasks/Task_11.sol\":421:448  uint256 public targetAmount */\n    tag_6:\n      callvalue\n      dup1\n      iszero\n      tag_28\n      jumpi\n      revert(0x00, 0x00)\n    tag_28:\n      pop\n      tag_29\n      tag_30\n      jump\t// in\n    tag_29:\n      mload(0x40)\n      tag_31\n      swap2\n      swap1\n      tag_22\n      jump\t// in\n    tag_31:\n      mload(0x40)\n      dup1\n      swap2\n      sub\n      swap1\n      return\n        /* \"tasks/Task_11.sol\":1370:2045  function deposit() external payable whenOpen {... */\n    tag_7:\n      tag_32\n      tag_33\n      jump\t// in\n    tag_32:\n      stop\n        /* \"tasks/Task_11.sol\":498:541  mapping(address => uint256) public deposits */\n    tag_8:\n      callvalue\n      dup1\n      iszero\n      tag_34\n      jumpi\n      revert(0x00, 0x00)\n    tag_34:\n      pop\n      tag_35\n      0x04\n      dup1\n      calldatasize\n      sub\n      dup2\n      add\n      swap1\n      tag_36\n      swap2\n      swap1\n      tag_37\n      jump\t// in\n    tag_36:\n      tag_38\n      jump\t// in\n    tag_35:\n      mload(0x40)\n      tag_39\n      swap2\n      swap1\n      tag_22\n      jump\t// in\n    tag_39:\n      mload(0x40)\n      dup1\n      swap2\n      sub\n      swap1\n      return\n        /* \"tasks/Task_11.sol\":179:213  Status public status = Status.Open */\n    tag_12:\n      0x00\n      0x14\n      swap1\n      sload\n      swap1\n      0x0100\n      exp\n      swap1\n      div\n      0xff\n      and\n      dup2\n      jump\t// out\n        /* \"tasks/Task_11.sol\":2255:2725  function withdraw() external onlyOwner whenClosed {... */\n    tag_17:\n        /* \"tasks/Task_11.sol\":988:993  owner */\n      0x00\n      0x00\n      swap1\n      sload\n      swap1\n      0x0100\n      exp\n      swap1\n      div\n      0xffffffffffffffffffffffffffffffffffffffff\n      and\n        /* \"tasks/Task_11.sol\":974:993  msg.sender == owner */\n      0xffffffffffffffffffffffffffffffffffffffff\n      and\n        /* \"tasks/Task_11.sol\":974:984  msg.sender */\n      caller\n        /* \"tasks/Task_11.sol\":974:993  msg.sender == owner */\n      0xffffffffffffffffffffffffffffffffffffffff\n      and\n      eq\n        /* \"tasks/Task_11.sol\":966:1020  require(msg.sender == owner, \"Not the contract owner\") */\n      tag_41\n      jumpi\n      mload(0x40)\n      0x08c379a000000000000000000000000000000000000000000000000000000000\n      dup2\n      mstore\n      0x04\n      add\n      tag_42\n      swap1\n      tag_43\n      jump\t// in\n    tag_42:\n      mload(0x40)\n      dup1\n      swap2\n      sub\n      swap1\n      revert\n    tag_41:\n        /* \"tasks/Task_11.sol\":1140:1153  Status.Closed */\n      0x01\n        /* \"tasks/Task_11.sol\":1130:1153  status == Status.Closed */\n      dup1\n      dup2\n      gt\n      iszero\n      tag_45\n      jumpi\n      tag_46\n      tag_47\n      jump\t// in\n    tag_46:\n    tag_45:\n        /* \"tasks/Task_11.sol\":1130:1136  status */\n      0x00\n      0x14\n      swap1\n      sload\n      swap1\n      0x0100\n      exp\n      swap1\n      div\n      0xff\n      and\n        /* \"tasks/Task_11.sol\":1130:1153  status == Status.Closed */\n      0x01\n      dup2\n      gt\n      iszero\n      tag_48\n      jumpi\n      tag_49\n      tag_47\n      jump\t// in\n    tag_49:\n    tag_48:\n      eq\n        /* \"tasks/Task_11.sol\":1122:1180  require(status == Status.Closed, \"Contract is not closed\") */\n      tag_50\n      jumpi\n      mload(0x40)\n      0x08c379a000000000000000000000000000000000000000000000000000000000\n      dup2\n      mstore\n      0x04\n      add\n      tag_51\n      swap1\n      tag_52\n      jump\t// in\n    tag_51:\n      mload(0x40)\n      dup1\n      swap2\n      sub\n      swap1\n      revert\n    tag_50:\n        /* \"tasks/Task_11.sol\":2315:2329  uint256 amount */\n      0x00\n        /* \"tasks/Task_11.sol\":2332:2353  address(this).balance */\n      selfbalance\n        /* \"tasks/Task_11.sol\":2315:2353  uint256 amount = address(this).balance */\n      swap1\n      pop\n        /* \"tasks/Task_11.sol\":2380:2381  0 */\n      0x00\n        /* \"tasks/Task_11.sol\":2371:2377  amount */\n      dup2\n        /* \"tasks/Task_11.sol\":2371:2381  amount > 0 */\n      gt\n        /* \"tasks/Task_11.sol\":2363:2405  require(amount > 0, \"Nothing to withdraw\") */\n      tag_54\n      jumpi\n      mload(0x40)\n      0x08c379a000000000000000000000000000000000000000000000000000000000\n      dup2\n      mstore\n      0x04\n      add\n      tag_55\n      swap1\n      tag_56\n      jump\t// in\n    tag_55:\n      mload(0x40)\n      dup1\n      swap2\n      sub\n      swap1\n      revert\n    tag_54:\n        /* \"tasks/Task_11.sol\":2494:2495  0 */\n      0x00\n        /* \"tasks/Task_11.sol\":2474:2491  totalUserDeposits */\n      0x01\n        /* \"tasks/Task_11.sol\":2474:2495  totalUserDeposits = 0 */\n      dup2\n      swap1\n      sstore\n      pop\n        /* \"tasks/Task_11.sol\":2573:2582  bool sent */\n      0x00\n        /* \"tasks/Task_11.sol\":2588:2593  owner */\n      0x00\n      0x00\n      swap1\n      sload\n      swap1\n      0x0100\n      exp\n      swap1\n      div\n      0xffffffffffffffffffffffffffffffffffffffff\n      and\n        /* \"tasks/Task_11.sol\":2588:2598  owner.call */\n      0xffffffffffffffffffffffffffffffffffffffff\n      and\n        /* \"tasks/Task_11.sol\":2606:2612  amount */\n      dup3\n        /* \"tasks/Task_11.sol\":2588:2617  owner.call{value: amount}(\"\") */\n      mload(0x40)\n      tag_57\n      swap1\n      tag_58\n      jump\t// in\n    tag_57:\n      0x00\n      mload(0x40)\n      dup1\n      dup4\n      sub\n      dup2\n      dup6\n      dup8\n      gas\n      call\n      swap3\n      pop\n      pop\n      pop\n      returndatasize\n      dup1\n      0x00\n      dup2\n      eq\n      tag_61\n      jumpi\n      mload(0x40)\n      swap2\n      pop\n      and(add(returndatasize, 0x3f), not(0x1f))\n      dup3\n      add\n      0x40\n      mstore\n      returndatasize\n      dup3\n      mstore\n      returndatasize\n      0x00\n      0x20\n      dup5\n      add\n      returndatacopy\n      jump(tag_60)\n    tag_61:\n      0x60\n      swap2\n      pop\n    tag_60:\n      pop\n        /* \"tasks/Task_11.sol\":2572:2617  (bool sent, ) = owner.call{value: amount}(\"\") */\n      pop\n      swap1\n      pop\n        /* \"tasks/Task_11.sol\":2635:2639  sent */\n      dup1\n        /* \"tasks/Task_11.sol\":2627:2659  require(sent, \"Withdraw failed\") */\n      tag_62\n      jumpi\n      mload(0x40)\n      0x08c379a000000000000000000000000000000000000000000000000000000000\n      dup2\n      mstore\n      0x04\n      add\n      tag_63\n      swap1\n      tag_64\n      jump\t// in\n    tag_63:\n      mload(0x40)\n      dup1\n      swap2\n      sub\n      swap1\n      revert\n    tag_62:\n        /* \"tasks/Task_11.sol\":2685:2690  owner */\n      0x00\n      0x00\n      swap1\n      sload\n      swap1\n      0x0100\n      exp\n      swap1\n      div\n      0xffffffffffffffffffffffffffffffffffffffff\n      and\n        /* \"tasks/Task_11.sol\":2675:2718  Withdrawn(owner, amount, totalUserDeposits) */\n      0xffffffffffffffffffffffffffffffffffffffff\n      and\n      0x92ccf450a286a957af52509bc1c9939d1a6a481783e142e41e2499f0bb66ebc6\n        /* \"tasks/Task_11.sol\":2692:2698  amount */\n      dup4\n        /* \"tasks/Task_11.sol\":2700:2717  totalUserDeposits */\n      sload(0x01)\n        /* \"tasks/Task_11.sol\":2675:2718  Withdrawn(owner, amount, totalUserDeposits) */\n      mload(0x40)\n      tag_65\n      swap3\n      swap2\n      swap1\n      tag_66\n      jump\t// in\n    tag_65:\n      mload(0x40)\n      dup1\n      swap2\n      sub\n      swap1\n      log2\n        /* \"tasks/Task_11.sol\":2305:2725  {... */\n      pop\n      pop\n        /* \"tasks/Task_11.sol\":2255:2725  function withdraw() external onlyOwner whenClosed {... */\n      jump\t// out\n        /* \"tasks/Task_11.sol\":291:323  uint256 public totalUserDeposits */\n    tag_20:\n      sload(0x01)\n      dup2\n      jump\t// out\n        /* \"tasks/Task_11.sol\":80:100  address public owner */\n    tag_25:\n      0x00\n      0x00\n      swap1\n      sload\n      swap1\n      0x0100\n      exp\n      swap1\n      div\n      0xffffffffffffffffffffffffffffffffffffffff\n      and\n      dup2\n      jump\t// out\n        /* \"tasks/Task_11.sol\":421:448  uint256 public targetAmount */\n    tag_30:\n      sload(0x02)\n      dup2\n      jump\t// out\n        /* \"tasks/Task_11.sol\":1370:2045  function deposit() external payable whenOpen {... */\n    tag_33:\n        /* \"tasks/Task_11.sol\":1252:1263  Status.Open */\n      0x00\n        /* \"tasks/Task_11.sol\":1242:1263  status == Status.Open */\n      0x01\n      dup2\n      gt\n      iszero\n      tag_68\n      jumpi\n      tag_69\n      tag_47\n      jump\t// in\n    tag_69:\n    tag_68:\n        /* \"tasks/Task_11.sol\":1242:1248  status */\n      0x00\n      0x14\n      swap1\n      sload\n      swap1\n      0x0100\n      exp\n      swap1\n      div\n      0xff\n      and\n        /* \"tasks/Task_11.sol\":1242:1263  status == Status.Open */\n      0x01\n      dup2\n      gt\n      iszero\n      tag_70\n      jumpi\n      tag_71\n      tag_47\n      jump\t// in\n    tag_71:\n    tag_70:\n      eq\n        /* \"tasks/Task_11.sol\":1234:1286  require(status == Status.Open, \"Contract is closed\") */\n      tag_72\n      jumpi\n      mload(0x40)\n      0x08c379a000000000000000000000000000000000000000000000000000000000\n      dup2\n      mstore\n      0x04\n      add\n      tag_73\n      swap1\n      tag_74\n      jump\t// in\n    tag_73:\n      mload(0x40)\n      dup1\n      swap2\n      sub\n      swap1\n      revert\n    tag_72:\n        /* \"tasks/Task_11.sol\":1445:1446  0 */\n      0x00\n        /* \"tasks/Task_11.sol\":1433:1442  msg.value */\n      callvalue\n        /* \"tasks/Task_11.sol\":1433:1446  msg.value > 0 */\n      gt\n        /* \"tasks/Task_11.sol\":1425:1470  require(msg.value > 0, \"Deposit must be > 0\") */\n      tag_76\n      jumpi\n      mload(0x40)\n      0x08c379a000000000000000000000000000000000000000000000000000000000\n      dup2\n      mstore\n      0x04\n      add\n      tag_77\n      swap1\n      tag_78\n      jump\t// in\n    tag_77:\n      mload(0x40)\n      dup1\n      swap2\n      sub\n      swap1\n      revert\n    tag_76:\n        /* \"tasks/Task_11.sol\":1579:1588  msg.value */\n      callvalue\n        /* \"tasks/Task_11.sol\":1555:1563  deposits */\n      0x03\n        /* \"tasks/Task_11.sol\":1555:1575  deposits[msg.sender] */\n      0x00\n        /* \"tasks/Task_11.sol\":1564:1574  msg.sender */\n      caller\n        /* \"tasks/Task_11.sol\":1555:1575  deposits[msg.sender] */\n      0xffffffffffffffffffffffffffffffffffffffff\n      and\n      0xffffffffffffffffffffffffffffffffffffffff\n      and\n      dup2\n      mstore\n      0x20\n      add\n      swap1\n      dup2\n      mstore\n      0x20\n      add\n      0x00\n      keccak256\n      0x00\n        /* \"tasks/Task_11.sol\":1555:1588  deposits[msg.sender] += msg.value */\n      dup3\n      dup3\n      sload\n      tag_79\n      swap2\n      swap1\n      tag_80\n      jump\t// in\n    tag_79:\n      swap3\n      pop\n      pop\n      dup2\n      swap1\n      sstore\n      pop\n        /* \"tasks/Task_11.sol\":1706:1715  msg.value */\n      callvalue\n        /* \"tasks/Task_11.sol\":1685:1702  totalUserDeposits */\n      0x01\n      0x00\n        /* \"tasks/Task_11.sol\":1685:1715  totalUserDeposits += msg.value */\n      dup3\n      dup3\n      sload\n      tag_81\n      swap2\n      swap1\n      tag_80\n      jump\t// in\n    tag_81:\n      swap3\n      pop\n      pop\n      dup2\n      swap1\n      sstore\n      pop\n        /* \"tasks/Task_11.sol\":1741:1751  msg.sender */\n      caller\n        /* \"tasks/Task_11.sol\":1731:1782  Deposited(msg.sender, msg.value, totalUserDeposits) */\n      0xffffffffffffffffffffffffffffffffffffffff\n      and\n      0x73a19dd210f1a7f902193214c0ee91dd35ee5b4d920cba8d519eca65a7b488ca\n        /* \"tasks/Task_11.sol\":1753:1762  msg.value */\n      callvalue\n        /* \"tasks/Task_11.sol\":1764:1781  totalUserDeposits */\n      sload(0x01)\n        /* \"tasks/Task_11.sol\":1731:1782  Deposited(msg.sender, msg.value, totalUserDeposits) */\n      mload(0x40)\n      tag_82\n      swap3\n      swap2\n      swap1\n      tag_66\n      jump\t// in\n    tag_82:\n      mload(0x40)\n      dup1\n      swap2\n      sub\n      swap1\n      log2\n        /* \"tasks/Task_11.sol\":1934:1946  targetAmount */\n      sload(0x02)\n        /* \"tasks/Task_11.sol\":1913:1930  totalUserDeposits */\n      sload(0x01)\n        /* \"tasks/Task_11.sol\":1913:1946  totalUserDeposits >= targetAmount */\n      lt\n        /* \"tasks/Task_11.sol\":1909:2039  if (totalUserDeposits >= targetAmount) {... */\n      tag_83\n      jumpi\n        /* \"tasks/Task_11.sol\":1971:1984  Status.Closed */\n      0x01\n        /* \"tasks/Task_11.sol\":1962:1968  status */\n      0x00\n      0x14\n        /* \"tasks/Task_11.sol\":1962:1984  status = Status.Closed */\n      0x0100\n      exp\n      dup2\n      sload\n      dup2\n      0xff\n      mul\n      not\n      and\n      swap1\n      dup4\n      0x01\n      dup2\n      gt\n      iszero\n      tag_84\n      jumpi\n      tag_85\n      tag_47\n      jump\t// in\n    tag_85:\n    tag_84:\n      mul\n      or\n      swap1\n      sstore\n      pop\n        /* \"tasks/Task_11.sol\":2003:2028  Closed(totalUserDeposits) */\n      0x6cc09e7b5c3e49861ebe8f6867e1618fbfc14c8d0e968fde37c4243ca02a6f83\n        /* \"tasks/Task_11.sol\":2010:2027  totalUserDeposits */\n      sload(0x01)\n        /* \"tasks/Task_11.sol\":2003:2028  Closed(totalUserDeposits) */\n      mload(0x40)\n      tag_86\n      swap2\n      swap1\n      tag_22\n      jump\t// in\n    tag_86:\n      mload(0x40)\n      dup1\n      swap2\n      sub\n      swap1\n      log1\n        /* \"tasks/Task_11.sol\":1909:2039  if (totalUserDeposits >= targetAmount) {... */\n    tag_83:\n        /* \"tasks/Task_11.sol\":1370:2045  function deposit() external payable whenOpen {... */\n      jump\t// out\n        /* \"tasks/Task_11.sol\":498:541  mapping(address => uint256) public deposits */\n    tag_38:\n      mstore(0x20, 0x03)\n      dup1\n      0x00\n      mstore\n      keccak256(0x00, 0x40)\n      0x00\n      swap2\n      pop\n      swap1\n      pop\n      sload\n      dup2\n      jump\t// out\n        /* \"#utility.yul\":7:187   */\n    tag_47:\n        /* \"#utility.yul\":55:132   */\n      0x4e487b7100000000000000000000000000000000000000000000000000000000\n        /* \"#utility.yul\":52:53   */\n      0x00\n        /* \"#utility.yul\":45:133   */\n      mstore\n        /* \"#utility.yul\":152:156   */\n      0x21\n        /* \"#utility.yul\":149:150   */\n      0x04\n        /* \"#utility.yul\":142:157   */\n      mstore\n        /* \"#utility.yul\":176:180   */\n      0x24\n        /* \"#utility.yul\":173:174   */\n      0x00\n        /* \"#utility.yul\":166:181   */\n      revert\n        /* \"#utility.yul\":193:306   */\n    tag_87:\n        /* \"#utility.yul\":274:275   */\n      0x02\n        /* \"#utility.yul\":267:272   */\n      dup2\n        /* \"#utility.yul\":264:276   */\n      lt\n        /* \"#utility.yul\":254:300   */\n      tag_121\n      jumpi\n        /* \"#utility.yul\":280:298   */\n      tag_122\n      tag_47\n      jump\t// in\n    tag_122:\n        /* \"#utility.yul\":254:300   */\n    tag_121:\n        /* \"#utility.yul\":193:306   */\n      pop\n      jump\t// out\n        /* \"#utility.yul\":312:439   */\n    tag_88:\n        /* \"#utility.yul\":357:364   */\n      0x00\n        /* \"#utility.yul\":386:391   */\n      dup2\n        /* \"#utility.yul\":375:391   */\n      swap1\n      pop\n        /* \"#utility.yul\":392:433   */\n      tag_124\n        /* \"#utility.yul\":427:432   */\n      dup3\n        /* \"#utility.yul\":392:433   */\n      tag_87\n      jump\t// in\n    tag_124:\n        /* \"#utility.yul\":312:439   */\n      swap2\n      swap1\n      pop\n      jump\t// out\n        /* \"#utility.yul\":445:572   */\n    tag_89:\n        /* \"#utility.yul\":501:510   */\n      0x00\n        /* \"#utility.yul\":534:566   */\n      tag_126\n        /* \"#utility.yul\":560:565   */\n      dup3\n        /* \"#utility.yul\":534:566   */\n      tag_88\n      jump\t// in\n    tag_126:\n        /* \"#utility.yul\":521:566   */\n      swap1\n      pop\n        /* \"#utility.yul\":445:572   */\n      swap2\n      swap1\n      pop\n      jump\t// out\n        /* \"#utility.yul\":578:721   */\n    tag_90:\n        /* \"#utility.yul\":671:714   */\n      tag_128\n        /* \"#utility.yul\":708:713   */\n      dup2\n        /* \"#utility.yul\":671:714   */\n      tag_89\n      jump\t// in\n    tag_128:\n        /* \"#utility.yul\":666:669   */\n      dup3\n        /* \"#utility.yul\":659:715   */\n      mstore\n        /* \"#utility.yul\":578:721   */\n      pop\n      pop\n      jump\t// out\n        /* \"#utility.yul\":727:961   */\n    tag_14:\n        /* \"#utility.yul\":826:830   */\n      0x00\n        /* \"#utility.yul\":864:866   */\n      0x20\n        /* \"#utility.yul\":853:862   */\n      dup3\n        /* \"#utility.yul\":849:867   */\n      add\n        /* \"#utility.yul\":841:867   */\n      swap1\n      pop\n        /* \"#utility.yul\":877:954   */\n      tag_130\n        /* \"#utility.yul\":951:952   */\n      0x00\n        /* \"#utility.yul\":940:949   */\n      dup4\n        /* \"#utility.yul\":936:953   */\n      add\n        /* \"#utility.yul\":927:933   */\n      dup5\n        /* \"#utility.yul\":877:954   */\n      tag_90\n      jump\t// in\n    tag_130:\n        /* \"#utility.yul\":727:961   */\n      swap3\n      swap2\n      pop\n      pop\n      jump\t// out\n        /* \"#utility.yul\":967:1044   */\n    tag_91:\n        /* \"#utility.yul\":1004:1011   */\n      0x00\n        /* \"#utility.yul\":1033:1038   */\n      dup2\n        /* \"#utility.yul\":1022:1038   */\n      swap1\n      pop\n        /* \"#utility.yul\":967:1044   */\n      swap2\n      swap1\n      pop\n      jump\t// out\n        /* \"#utility.yul\":1050:1168   */\n    tag_92:\n        /* \"#utility.yul\":1137:1161   */\n      tag_133\n        /* \"#utility.yul\":1155:1160   */\n      dup2\n        /* \"#utility.yul\":1137:1161   */\n      tag_91\n      jump\t// in\n    tag_133:\n        /* \"#utility.yul\":1132:1135   */\n      dup3\n        /* \"#utility.yul\":1125:1162   */\n      mstore\n        /* \"#utility.yul\":1050:1168   */\n      pop\n      pop\n      jump\t// out\n        /* \"#utility.yul\":1174:1396   */\n    tag_22:\n        /* \"#utility.yul\":1267:1271   */\n      0x00\n        /* \"#utility.yul\":1305:1307   */\n      0x20\n        /* \"#utility.yul\":1294:1303   */\n      dup3\n        /* \"#utility.yul\":1290:1308   */\n      add\n        /* \"#utility.yul\":1282:1308   */\n      swap1\n      pop\n        /* \"#utility.yul\":1318:1389   */\n      tag_135\n        /* \"#utility.yul\":1386:1387   */\n      0x00\n        /* \"#utility.yul\":1375:1384   */\n      dup4\n        /* \"#utility.yul\":1371:1388   */\n      add\n        /* \"#utility.yul\":1362:1368   */\n      dup5\n        /* \"#utility.yul\":1318:1389   */\n      tag_92\n      jump\t// in\n    tag_135:\n        /* \"#utility.yul\":1174:1396   */\n      swap3\n      swap2\n      pop\n      pop\n      jump\t// out\n        /* \"#utility.yul\":1402:1528   */\n    tag_93:\n        /* \"#utility.yul\":1439:1446   */\n      0x00\n        /* \"#utility.yul\":1479:1521   */\n      0xffffffffffffffffffffffffffffffffffffffff\n        /* \"#utility.yul\":1472:1477   */\n      dup3\n        /* \"#utility.yul\":1468:1522   */\n      and\n        /* \"#utility.yul\":1457:1522   */\n      swap1\n      pop\n        /* \"#utility.yul\":1402:1528   */\n      swap2\n      swap1\n      pop\n      jump\t// out\n        /* \"#utility.yul\":1534:1630   */\n    tag_94:\n        /* \"#utility.yul\":1571:1578   */\n      0x00\n        /* \"#utility.yul\":1600:1624   */\n      tag_138\n        /* \"#utility.yul\":1618:1623   */\n      dup3\n        /* \"#utility.yul\":1600:1624   */\n      tag_93\n      jump\t// in\n    tag_138:\n        /* \"#utility.yul\":1589:1624   */\n      swap1\n      pop\n        /* \"#utility.yul\":1534:1630   */\n      swap2\n      swap1\n      pop\n      jump\t// out\n        /* \"#utility.yul\":1636:1754   */\n    tag_95:\n        /* \"#utility.yul\":1723:1747   */\n      tag_140\n        /* \"#utility.yul\":1741:1746   */\n      dup2\n        /* \"#utility.yul\":1723:1747   */\n      tag_94\n      jump\t// in\n    tag_140:\n        /* \"#utility.yul\":1718:1721   */\n      dup3\n        /* \"#utility.yul\":1711:1748   */\n      mstore\n        /* \"#utility.yul\":1636:1754   */\n      pop\n      pop\n      jump\t// out\n        /* \"#utility.yul\":1760:1982   */\n    tag_27:\n        /* \"#utility.yul\":1853:1857   */\n      0x00\n        /* \"#utility.yul\":1891:1893   */\n      0x20\n        /* \"#utility.yul\":1880:1889   */\n      dup3\n        /* \"#utility.yul\":1876:1894   */\n      add\n        /* \"#utility.yul\":1868:1894   */\n      swap1\n      pop\n        /* \"#utility.yul\":1904:1975   */\n      tag_142\n        /* \"#utility.yul\":1972:1973   */\n      0x00\n        /* \"#utility.yul\":1961:1970   */\n      dup4\n        /* \"#utility.yul\":1957:1974   */\n      add\n        /* \"#utility.yul\":1948:1954   */\n      dup5\n        /* \"#utility.yul\":1904:1975   */\n      tag_95\n      jump\t// in\n    tag_142:\n        /* \"#utility.yul\":1760:1982   */\n      swap3\n      swap2\n      pop\n      pop\n      jump\t// out\n        /* \"#utility.yul\":2069:2186   */\n    tag_97:\n        /* \"#utility.yul\":2178:2179   */\n      0x00\n        /* \"#utility.yul\":2175:2176   */\n      0x00\n        /* \"#utility.yul\":2168:2180   */\n      revert\n        /* \"#utility.yul\":2315:2437   */\n    tag_99:\n        /* \"#utility.yul\":2388:2412   */\n      tag_147\n        /* \"#utility.yul\":2406:2411   */\n      dup2\n        /* \"#utility.yul\":2388:2412   */\n      tag_94\n      jump\t// in\n    tag_147:\n        /* \"#utility.yul\":2381:2386   */\n      dup2\n        /* \"#utility.yul\":2378:2413   */\n      eq\n        /* \"#utility.yul\":2368:2431   */\n      tag_148\n      jumpi\n        /* \"#utility.yul\":2427:2428   */\n      0x00\n        /* \"#utility.yul\":2424:2425   */\n      0x00\n        /* \"#utility.yul\":2417:2429   */\n      revert\n        /* \"#utility.yul\":2368:2431   */\n    tag_148:\n        /* \"#utility.yul\":2315:2437   */\n      pop\n      jump\t// out\n        /* \"#utility.yul\":2443:2582   */\n    tag_100:\n        /* \"#utility.yul\":2489:2494   */\n      0x00\n        /* \"#utility.yul\":2527:2533   */\n      dup2\n        /* \"#utility.yul\":2514:2534   */\n      calldataload\n        /* \"#utility.yul\":2505:2534   */\n      swap1\n      pop\n        /* \"#utility.yul\":2543:2576   */\n      tag_150\n        /* \"#utility.yul\":2570:2575   */\n      dup2\n        /* \"#utility.yul\":2543:2576   */\n      tag_99\n      jump\t// in\n    tag_150:\n        /* \"#utility.yul\":2443:2582   */\n      swap3\n      swap2\n      pop\n      pop\n      jump\t// out\n        /* \"#utility.yul\":2588:2917   */\n    tag_37:\n        /* \"#utility.yul\":2647:2653   */\n      0x00\n        /* \"#utility.yul\":2696:2698   */\n      0x20\n        /* \"#utility.yul\":2684:2693   */\n      dup3\n        /* \"#utility.yul\":2675:2682   */\n      dup5\n        /* \"#utility.yul\":2671:2694   */\n      sub\n        /* \"#utility.yul\":2667:2699   */\n      slt\n        /* \"#utility.yul\":2664:2783   */\n      iszero\n      tag_152\n      jumpi\n        /* \"#utility.yul\":2702:2781   */\n      tag_153\n      tag_97\n      jump\t// in\n    tag_153:\n        /* \"#utility.yul\":2664:2783   */\n    tag_152:\n        /* \"#utility.yul\":2822:2823   */\n      0x00\n        /* \"#utility.yul\":2847:2900   */\n      tag_154\n        /* \"#utility.yul\":2892:2899   */\n      dup5\n        /* \"#utility.yul\":2883:2889   */\n      dup3\n        /* \"#utility.yul\":2872:2881   */\n      dup6\n        /* \"#utility.yul\":2868:2890   */\n      add\n        /* \"#utility.yul\":2847:2900   */\n      tag_100\n      jump\t// in\n    tag_154:\n        /* \"#utility.yul\":2837:2900   */\n      swap2\n      pop\n        /* \"#utility.yul\":2793:2910   */\n      pop\n        /* \"#utility.yul\":2588:2917   */\n      swap3\n      swap2\n      pop\n      pop\n      jump\t// out\n        /* \"#utility.yul\":2923:3092   */\n    tag_101:\n        /* \"#utility.yul\":3007:3018   */\n      0x00\n        /* \"#utility.yul\":3041:3047   */\n      dup3\n        /* \"#utility.yul\":3036:3039   */\n      dup3\n        /* \"#utility.yul\":3029:3048   */\n      mstore\n        /* \"#utility.yul\":3081:3085   */\n      0x20\n        /* \"#utility.yul\":3076:3079   */\n      dup3\n        /* \"#utility.yul\":3072:3086   */\n      add\n        /* \"#utility.yul\":3057:3086   */\n      swap1\n      pop\n        /* \"#utility.yul\":2923:3092   */\n      swap3\n      swap2\n      pop\n      pop\n      jump\t// out\n        /* \"#utility.yul\":3098:3270   */\n    tag_102:\n        /* \"#utility.yul\":3238:3262   */\n      0x4e6f742074686520636f6e7472616374206f776e657200000000000000000000\n        /* \"#utility.yul\":3234:3235   */\n      0x00\n        /* \"#utility.yul\":3226:3232   */\n      dup3\n        /* \"#utility.yul\":3222:3236   */\n      add\n        /* \"#utility.yul\":3215:3263   */\n      mstore\n        /* \"#utility.yul\":3098:3270   */\n      pop\n      jump\t// out\n        /* \"#utility.yul\":3276:3642   */\n    tag_103:\n        /* \"#utility.yul\":3418:3421   */\n      0x00\n        /* \"#utility.yul\":3439:3506   */\n      tag_158\n        /* \"#utility.yul\":3503:3505   */\n      0x16\n        /* \"#utility.yul\":3498:3501   */\n      dup4\n        /* \"#utility.yul\":3439:3506   */\n      tag_101\n      jump\t// in\n    tag_158:\n        /* \"#utility.yul\":3432:3506   */\n      swap2\n      pop\n        /* \"#utility.yul\":3515:3608   */\n      tag_159\n        /* \"#utility.yul\":3604:3607   */\n      dup3\n        /* \"#utility.yul\":3515:3608   */\n      tag_102\n      jump\t// in\n    tag_159:\n        /* \"#utility.yul\":3633:3635   */\n      0x20\n        /* \"#utility.yul\":3628:3631   */\n      dup3\n        /* \"#utility.yul\":3624:3636   */\n      add\n        /* \"#utility.yul\":3617:3636   */\n      swap1\n      pop\n        /* \"#utility.yul\":3276:3642   */\n      swap2\n      swap1\n      pop\n      jump\t// out\n        /* \"#utility.yul\":3648:4067   */\n    tag_43:\n        /* \"#utility.yul\":3814:3818   */\n      0x00\n        /* \"#utility.yul\":3852:3854   */\n      0x20\n        /* \"#utility.yul\":3841:3850   */\n      dup3\n        /* \"#utility.yul\":3837:3855   */\n      add\n        /* \"#utility.yul\":3829:3855   */\n      swap1\n      pop\n        /* \"#utility.yul\":3901:3910   */\n      dup2\n        /* \"#utility.yul\":3895:3899   */\n      dup2\n        /* \"#utility.yul\":3891:3911   */\n      sub\n        /* \"#utility.yul\":3887:3888   */\n      0x00\n        /* \"#utility.yul\":3876:3885   */\n      dup4\n        /* \"#utility.yul\":3872:3889   */\n      add\n        /* \"#utility.yul\":3865:3912   */\n      mstore\n        /* \"#utility.yul\":3929:4060   */\n      tag_161\n        /* \"#utility.yul\":4055:4059   */\n      dup2\n        /* \"#utility.yul\":3929:4060   */\n      tag_103\n      jump\t// in\n    tag_161:\n        /* \"#utility.yul\":3921:4060   */\n      swap1\n      pop\n        /* \"#utility.yul\":3648:4067   */\n      swap2\n      swap1\n      pop\n      jump\t// out\n        /* \"#utility.yul\":4073:4245   */\n    tag_104:\n        /* \"#utility.yul\":4213:4237   */\n      0x436f6e7472616374206973206e6f7420636c6f73656400000000000000000000\n        /* \"#utility.yul\":4209:4210   */\n      0x00\n        /* \"#utility.yul\":4201:4207   */\n      dup3\n        /* \"#utility.yul\":4197:4211   */\n      add\n        /* \"#utility.yul\":4190:4238   */\n      mstore\n        /* \"#utility.yul\":4073:4245   */\n      pop\n      jump\t// out\n        /* \"#utility.yul\":4251:4617   */\n    tag_105:\n        /* \"#utility.yul\":4393:4396   */\n      0x00\n        /* \"#utility.yul\":4414:4481   */\n      tag_164\n        /* \"#utility.yul\":4478:4480   */\n      0x16\n        /* \"#utility.yul\":4473:4476   */\n      dup4\n        /* \"#utility.yul\":4414:4481   */\n      tag_101\n      jump\t// in\n    tag_164:\n        /* \"#utility.yul\":4407:4481   */\n      swap2\n      pop\n        /* \"#utility.yul\":4490:4583   */\n      tag_165\n        /* \"#utility.yul\":4579:4582   */\n      dup3\n        /* \"#utility.yul\":4490:4583   */\n      tag_104\n      jump\t// in\n    tag_165:\n        /* \"#utility.yul\":4608:4610   */\n      0x20\n        /* \"#utility.yul\":4603:4606   */\n      dup3\n        /* \"#utility.yul\":4599:4611   */\n      add\n        /* \"#utility.yul\":4592:4611   */\n      swap1\n      pop\n        /* \"#utility.yul\":4251:4617   */\n      swap2\n      swap1\n      pop\n      jump\t// out\n        /* \"#utility.yul\":4623:5042   */\n    tag_52:\n        /* \"#utility.yul\":4789:4793   */\n      0x00\n        /* \"#utility.yul\":4827:4829   */\n      0x20\n        /* \"#utility.yul\":4816:4825   */\n      dup3\n        /* \"#utility.yul\":4812:4830   */\n      add\n        /* \"#utility.yul\":4804:4830   */\n      swap1\n      pop\n        /* \"#utility.yul\":4876:4885   */\n      dup2\n        /* \"#utility.yul\":4870:4874   */\n      dup2\n        /* \"#utility.yul\":4866:4886   */\n      sub\n        /* \"#utility.yul\":4862:4863   */\n      0x00\n        /* \"#utility.yul\":4851:4860   */\n      dup4\n        /* \"#utility.yul\":4847:4864   */\n      add\n        /* \"#utility.yul\":4840:4887   */\n      mstore\n        /* \"#utility.yul\":4904:5035   */\n      tag_167\n        /* \"#utility.yul\":5030:5034   */\n      dup2\n        /* \"#utility.yul\":4904:5035   */\n      tag_105\n      jump\t// in\n    tag_167:\n        /* \"#utility.yul\":4896:5035   */\n      swap1\n      pop\n        /* \"#utility.yul\":4623:5042   */\n      swap2\n      swap1\n      pop\n      jump\t// out\n        /* \"#utility.yul\":5048:5217   */\n    tag_106:\n        /* \"#utility.yul\":5188:5209   */\n      0x4e6f7468696e6720746f20776974686472617700000000000000000000000000\n        /* \"#utility.yul\":5184:5185   */\n      0x00\n        /* \"#utility.yul\":5176:5182   */\n      dup3\n        /* \"#utility.yul\":5172:5186   */\n      add\n        /* \"#utility.yul\":5165:5210   */\n      mstore\n        /* \"#utility.yul\":5048:5217   */\n      pop\n      jump\t// out\n        /* \"#utility.yul\":5223:5589   */\n    tag_107:\n        /* \"#utility.yul\":5365:5368   */\n      0x00\n        /* \"#utility.yul\":5386:5453   */\n      tag_170\n        /* \"#utility.yul\":5450:5452   */\n      0x13\n        /* \"#utility.yul\":5445:5448   */\n      dup4\n        /* \"#utility.yul\":5386:5453   */\n      tag_101\n      jump\t// in\n    tag_170:\n        /* \"#utility.yul\":5379:5453   */\n      swap2\n      pop\n        /* \"#utility.yul\":5462:5555   */\n      tag_171\n        /* \"#utility.yul\":5551:5554   */\n      dup3\n        /* \"#utility.yul\":5462:5555   */\n      tag_106\n      jump\t// in\n    tag_171:\n        /* \"#utility.yul\":5580:5582   */\n      0x20\n        /* \"#utility.yul\":5575:5578   */\n      dup3\n        /* \"#utility.yul\":5571:5583   */\n      add\n        /* \"#utility.yul\":5564:5583   */\n      swap1\n      pop\n        /* \"#utility.yul\":5223:5589   */\n      swap2\n      swap1\n      pop\n      jump\t// out\n        /* \"#utility.yul\":5595:6014   */\n    tag_56:\n        /* \"#utility.yul\":5761:5765   */\n      0x00\n        /* \"#utility.yul\":5799:5801   */\n      0x20\n        /* \"#utility.yul\":5788:5797   */\n      dup3\n        /* \"#utility.yul\":5784:5802   */\n      add\n        /* \"#utility.yul\":5776:5802   */\n      swap1\n      pop\n        /* \"#utility.yul\":5848:5857   */\n      dup2\n        /* \"#utility.yul\":5842:5846   */\n      dup2\n        /* \"#utility.yul\":5838:5858   */\n      sub\n        /* \"#utility.yul\":5834:5835   */\n      0x00\n        /* \"#utility.yul\":5823:5832   */\n      dup4\n        /* \"#utility.yul\":5819:5836   */\n      add\n        /* \"#utility.yul\":5812:5859   */\n      mstore\n        /* \"#utility.yul\":5876:6007   */\n      tag_173\n        /* \"#utility.yul\":6002:6006   */\n      dup2\n        /* \"#utility.yul\":5876:6007   */\n      tag_107\n      jump\t// in\n    tag_173:\n        /* \"#utility.yul\":5868:6007   */\n      swap1\n      pop\n        /* \"#utility.yul\":5595:6014   */\n      swap2\n      swap1\n      pop\n      jump\t// out\n        /* \"#utility.yul\":6020:6167   */\n    tag_108:\n        /* \"#utility.yul\":6121:6132   */\n      0x00\n        /* \"#utility.yul\":6158:6161   */\n      dup2\n        /* \"#utility.yul\":6143:6161   */\n      swap1\n      pop\n        /* \"#utility.yul\":6020:6167   */\n      swap3\n      swap2\n      pop\n      pop\n      jump\t// out\n        /* \"#utility.yul\":6173:6287   */\n    tag_109:\n      pop\n      jump\t// out\n        /* \"#utility.yul\":6293:6691   */\n    tag_110:\n        /* \"#utility.yul\":6452:6455   */\n      0x00\n        /* \"#utility.yul\":6473:6556   */\n      tag_177\n        /* \"#utility.yul\":6554:6555   */\n      0x00\n        /* \"#utility.yul\":6549:6552   */\n      dup4\n        /* \"#utility.yul\":6473:6556   */\n      tag_108\n      jump\t// in\n    tag_177:\n        /* \"#utility.yul\":6466:6556   */\n      swap2\n      pop\n        /* \"#utility.yul\":6565:6658   */\n      tag_178\n        /* \"#utility.yul\":6654:6657   */\n      dup3\n        /* \"#utility.yul\":6565:6658   */\n      tag_109\n      jump\t// in\n    tag_178:\n        /* \"#utility.yul\":6683:6684   */\n      0x00\n        /* \"#utility.yul\":6678:6681   */\n      dup3\n        /* \"#utility.yul\":6674:6685   */\n      add\n        /* \"#utility.yul\":6667:6685   */\n      swap1\n      pop\n        /* \"#utility.yul\":6293:6691   */\n      swap2\n      swap1\n      pop\n      jump\t// out\n        /* \"#utility.yul\":6697:7076   */\n    tag_58:\n        /* \"#utility.yul\":6881:6884   */\n      0x00\n        /* \"#utility.yul\":6903:7050   */\n      tag_180\n        /* \"#utility.yul\":7046:7049   */\n      dup3\n        /* \"#utility.yul\":6903:7050   */\n      tag_110\n      jump\t// in\n    tag_180:\n        /* \"#utility.yul\":6896:7050   */\n      swap2\n      pop\n        /* \"#utility.yul\":7067:7070   */\n      dup2\n        /* \"#utility.yul\":7060:7070   */\n      swap1\n      pop\n        /* \"#utility.yul\":6697:7076   */\n      swap2\n      swap1\n      pop\n      jump\t// out\n        /* \"#utility.yul\":7082:7247   */\n    tag_111:\n        /* \"#utility.yul\":7222:7239   */\n      0x5769746864726177206661696c65640000000000000000000000000000000000\n        /* \"#utility.yul\":7218:7219   */\n      0x00\n        /* \"#utility.yul\":7210:7216   */\n      dup3\n        /* \"#utility.yul\":7206:7220   */\n      add\n        /* \"#utility.yul\":7199:7240   */\n      mstore\n        /* \"#utility.yul\":7082:7247   */\n      pop\n      jump\t// out\n        /* \"#utility.yul\":7253:7619   */\n    tag_112:\n        /* \"#utility.yul\":7395:7398   */\n      0x00\n        /* \"#utility.yul\":7416:7483   */\n      tag_183\n        /* \"#utility.yul\":7480:7482   */\n      0x0f\n        /* \"#utility.yul\":7475:7478   */\n      dup4\n        /* \"#utility.yul\":7416:7483   */\n      tag_101\n      jump\t// in\n    tag_183:\n        /* \"#utility.yul\":7409:7483   */\n      swap2\n      pop\n        /* \"#utility.yul\":7492:7585   */\n      tag_184\n        /* \"#utility.yul\":7581:7584   */\n      dup3\n        /* \"#utility.yul\":7492:7585   */\n      tag_111\n      jump\t// in\n    tag_184:\n        /* \"#utility.yul\":7610:7612   */\n      0x20\n        /* \"#utility.yul\":7605:7608   */\n      dup3\n        /* \"#utility.yul\":7601:7613   */\n      add\n        /* \"#utility.yul\":7594:7613   */\n      swap1\n      pop\n        /* \"#utility.yul\":7253:7619   */\n      swap2\n      swap1\n      pop\n      jump\t// out\n        /* \"#utility.yul\":7625:8044   */\n    tag_64:\n        /* \"#utility.yul\":7791:7795   */\n      0x00\n        /* \"#utility.yul\":7829:7831   */\n      0x20\n        /* \"#utility.yul\":7818:7827   */\n      dup3\n        /* \"#utility.yul\":7814:7832   */\n      add\n        /* \"#utility.yul\":7806:7832   */\n      swap1\n      pop\n        /* \"#utility.yul\":7878:7887   */\n      dup2\n        /* \"#utility.yul\":7872:7876   */\n      dup2\n        /* \"#utility.yul\":7868:7888   */\n      sub\n        /* \"#utility.yul\":7864:7865   */\n      0x00\n        /* \"#utility.yul\":7853:7862   */\n      dup4\n        /* \"#utility.yul\":7849:7866   */\n      add\n        /* \"#utility.yul\":7842:7889   */\n      mstore\n        /* \"#utility.yul\":7906:8037   */\n      tag_186\n        /* \"#utility.yul\":8032:8036   */\n      dup2\n        /* \"#utility.yul\":7906:8037   */\n      tag_112\n      jump\t// in\n    tag_186:\n        /* \"#utility.yul\":7898:8037   */\n      swap1\n      pop\n        /* \"#utility.yul\":7625:8044   */\n      swap2\n      swap1\n      pop\n      jump\t// out\n        /* \"#utility.yul\":8050:8382   */\n    tag_66:\n        /* \"#utility.yul\":8171:8175   */\n      0x00\n        /* \"#utility.yul\":8209:8211   */\n      0x40\n        /* \"#utility.yul\":8198:8207   */\n      dup3\n        /* \"#utility.yul\":8194:8212   */\n      add\n        /* \"#utility.yul\":8186:8212   */\n      swap1\n      pop\n        /* \"#utility.yul\":8222:8293   */\n      tag_188\n        /* \"#utility.yul\":8290:8291   */\n      0x00\n        /* \"#utility.yul\":8279:8288   */\n      dup4\n        /* \"#utility.yul\":8275:8292   */\n      add\n        /* \"#utility.yul\":8266:8272   */\n      dup6\n        /* \"#utility.yul\":8222:8293   */\n      tag_92\n      jump\t// in\n    tag_188:\n        /* \"#utility.yul\":8303:8375   */\n      tag_189\n        /* \"#utility.yul\":8371:8373   */\n      0x20\n        /* \"#utility.yul\":8360:8369   */\n      dup4\n        /* \"#utility.yul\":8356:8374   */\n      add\n        /* \"#utility.yul\":8347:8353   */\n      dup5\n        /* \"#utility.yul\":8303:8375   */\n      tag_92\n      jump\t// in\n    tag_189:\n        /* \"#utility.yul\":8050:8382   */\n      swap4\n      swap3\n      pop\n      pop\n      pop\n      jump\t// out\n        /* \"#utility.yul\":8388:8556   */\n    tag_113:\n        /* \"#utility.yul\":8528:8548   */\n      0x436f6e747261637420697320636c6f7365640000000000000000000000000000\n        /* \"#utility.yul\":8524:8525   */\n      0x00\n        /* \"#utility.yul\":8516:8522   */\n      dup3\n        /* \"#utility.yul\":8512:8526   */\n      add\n        /* \"#utility.yul\":8505:8549   */\n      mstore\n        /* \"#utility.yul\":8388:8556   */\n      pop\n      jump\t// out\n        /* \"#utility.yul\":8562:8928   */\n    tag_114:\n        /* \"#utility.yul\":8704:8707   */\n      0x00\n        /* \"#utility.yul\":8725:8792   */\n      tag_192\n        /* \"#utility.yul\":8789:8791   */\n      0x12\n        /* \"#utility.yul\":8784:8787   */\n      dup4\n        /* \"#utility.yul\":8725:8792   */\n      tag_101\n      jump\t// in\n    tag_192:\n        /* \"#utility.yul\":8718:8792   */\n      swap2\n      pop\n        /* \"#utility.yul\":8801:8894   */\n      tag_193\n        /* \"#utility.yul\":8890:8893   */\n      dup3\n        /* \"#utility.yul\":8801:8894   */\n      tag_113\n      jump\t// in\n    tag_193:\n        /* \"#utility.yul\":8919:8921   */\n      0x20\n        /* \"#utility.yul\":8914:8917   */\n      dup3\n        /* \"#utility.yul\":8910:8922   */\n      add\n        /* \"#utility.yul\":8903:8922   */\n      swap1\n      pop\n        /* \"#utility.yul\":8562:8928   */\n      swap2\n      swap1\n      pop\n      jump\t// out\n        /* \"#utility.yul\":8934:9353   */\n    tag_74:\n        /* \"#utility.yul\":9100:9104   */\n      0x00\n        /* \"#utility.yul\":9138:9140   */\n      0x20\n        /* \"#utility.yul\":9127:9136   */\n      dup3\n        /* \"#utility.yul\":9123:9141   */\n      add\n        /* \"#utility.yul\":9115:9141   */\n      swap1\n      pop\n        /* \"#utility.yul\":9187:9196   */\n      dup2\n        /* \"#utility.yul\":9181:9185   */\n      dup2\n        /* \"#utility.yul\":9177:9197   */\n      sub\n        /* \"#utility.yul\":9173:9174   */\n      0x00\n        /* \"#utility.yul\":9162:9171   */\n      dup4\n        /* \"#utility.yul\":9158:9175   */\n      add\n        /* \"#utility.yul\":9151:9198   */\n      mstore\n        /* \"#utility.yul\":9215:9346   */\n      tag_195\n        /* \"#utility.yul\":9341:9345   */\n      dup2\n        /* \"#utility.yul\":9215:9346   */\n      tag_114\n      jump\t// in\n    tag_195:\n        /* \"#utility.yul\":9207:9346   */\n      swap1\n      pop\n        /* \"#utility.yul\":8934:9353   */\n      swap2\n      swap1\n      pop\n      jump\t// out\n        /* \"#utility.yul\":9359:9528   */\n    tag_115:\n        /* \"#utility.yul\":9499:9520   */\n      0x4465706f736974206d757374206265203e203000000000000000000000000000\n        /* \"#utility.yul\":9495:9496   */\n      0x00\n        /* \"#utility.yul\":9487:9493   */\n      dup3\n        /* \"#utility.yul\":9483:9497   */\n      add\n        /* \"#utility.yul\":9476:9521   */\n      mstore\n        /* \"#utility.yul\":9359:9528   */\n      pop\n      jump\t// out\n        /* \"#utility.yul\":9534:9900   */\n    tag_116:\n        /* \"#utility.yul\":9676:9679   */\n      0x00\n        /* \"#utility.yul\":9697:9764   */\n      tag_198\n        /* \"#utility.yul\":9761:9763   */\n      0x13\n        /* \"#utility.yul\":9756:9759   */\n      dup4\n        /* \"#utility.yul\":9697:9764   */\n      tag_101\n      jump\t// in\n    tag_198:\n        /* \"#utility.yul\":9690:9764   */\n      swap2\n      pop\n        /* \"#utility.yul\":9773:9866   */\n      tag_199\n        /* \"#utility.yul\":9862:9865   */\n      dup3\n        /* \"#utility.yul\":9773:9866   */\n      tag_115\n      jump\t// in\n    tag_199:\n        /* \"#utility.yul\":9891:9893   */\n      0x20\n        /* \"#utility.yul\":9886:9889   */\n      dup3\n        /* \"#utility.yul\":9882:9894   */\n      add\n        /* \"#utility.yul\":9875:9894   */\n      swap1\n      pop\n        /* \"#utility.yul\":9534:9900   */\n      swap2\n      swap1\n      pop\n      jump\t// out\n        /* \"#utility.yul\":9906:10325   */\n    tag_78:\n        /* \"#utility.yul\":10072:10076   */\n      0x00\n        /* \"#utility.yul\":10110:10112   */\n      0x20\n        /* \"#utility.yul\":10099:10108   */\n      dup3\n        /* \"#utility.yul\":10095:10113   */\n      add\n        /* \"#utility.yul\":10087:10113   */\n      swap1\n      pop\n        /* \"#utility.yul\":10159:10168   */\n      dup2\n        /* \"#utility.yul\":10153:10157   */\n      dup2\n        /* \"#utility.yul\":10149:10169   */\n      sub\n        /* \"#utility.yul\":10145:10146   */\n      0x00\n        /* \"#utility.yul\":10134:10143   */\n      dup4\n        /* \"#utility.yul\":10130:10147   */\n      add\n        /* \"#utility.yul\":10123:10170   */\n      mstore\n        /* \"#utility.yul\":10187:10318   */\n      tag_201\n        /* \"#utility.yul\":10313:10317   */\n      dup2\n        /* \"#utility.yul\":10187:10318   */\n      tag_116\n      jump\t// in\n    tag_201:\n        /* \"#utility.yul\":10179:10318   */\n      swap1\n      pop\n        /* \"#utility.yul\":9906:10325   */\n      swap2\n      swap1\n      pop\n      jump\t// out\n        /* \"#utility.yul\":10331:10511   */\n    tag_117:\n        /* \"#utility.yul\":10379:10456   */\n      0x4e487b7100000000000000000000000000000000000000000000000000000000\n        /* \"#utility.yul\":10376:10377   */\n      0x00\n        /* \"#utility.yul\":10369:10457   */\n      mstore\n        /* \"#utility.yul\":10476:10480   */\n      0x11\n        /* \"#utility.yul\":10473:10474   */\n      0x04\n        /* \"#utility.yul\":10466:10481   */\n      mstore\n        /* \"#utility.yul\":10500:10504   */\n      0x24\n        /* \"#utility.yul\":10497:10498   */\n      0x00\n        /* \"#utility.yul\":10490:10505   */\n      revert\n        /* \"#utility.yul\":10517:10708   */\n    tag_80:\n        /* \"#utility.yul\":10557:10560   */\n      0x00\n        /* \"#utility.yul\":10576:10596   */\n      tag_204\n        /* \"#utility.yul\":10594:10595   */\n      dup3\n        /* \"#utility.yul\":10576:10596   */\n      tag_91\n      jump\t// in\n    tag_204:\n        /* \"#utility.yul\":10571:10596   */\n      swap2\n      pop\n        /* \"#utility.yul\":10610:10630   */\n      tag_205\n        /* \"#utility.yul\":10628:10629   */\n      dup4\n        /* \"#utility.yul\":10610:10630   */\n      tag_91\n      jump\t// in\n    tag_205:\n        /* \"#utility.yul\":10605:10630   */\n      swap3\n      pop\n        /* \"#utility.yul\":10653:10654   */\n      dup3\n        /* \"#utility.yul\":10650:10651   */\n      dup3\n        /* \"#utility.yul\":10646:10655   */\n      add\n        /* \"#utility.yul\":10639:10655   */\n      swap1\n      pop\n        /* \"#utility.yul\":10674:10677   */\n      dup1\n        /* \"#utility.yul\":10671:10672   */\n      dup3\n        /* \"#utility.yul\":10668:10678   */\n      gt\n        /* \"#utility.yul\":10665:10701   */\n      iszero\n      tag_206\n      jumpi\n        /* \"#utility.yul\":10681:10699   */\n      tag_207\n      tag_117\n      jump\t// in\n    tag_207:\n        /* \"#utility.yul\":10665:10701   */\n    tag_206:\n        /* \"#utility.yul\":10517:10708   */\n      swap3\n      swap2\n      pop\n      pop\n      jump\t// out\n\n    auxdata: 0xa264697066735822122061ff1b59a5ffe9dbf6ffadf3830069eaa9f494c3be180996b2d6df124726cbf164736f6c634300081e0033\n}\n",
				"bytecode": {
					"linkReferences": {},
					"object": "60806040525f5f60146101000a81548160ff02191690836001811115610028576100276100a6565b5b0217905550348015610038575f5ffd5b50604051610c6d380380610c6d833981810160405281019061005a919061010a565b335f5f6101000a81548173ffffffffffffffffffffffffffffffffffffffff021916908373ffffffffffffffffffffffffffffffffffffffff1602179055508060028190555050610135565b7f4e487b71000000000000000000000000000000000000000000000000000000005f52602160045260245ffd5b5f5ffd5b5f819050919050565b6100e9816100d7565b81146100f3575f5ffd5b50565b5f81519050610104816100e0565b92915050565b5f6020828403121561011f5761011e6100d3565b5b5f61012c848285016100f6565b91505092915050565b610b2b806101425f395ff3fe60806040526004361061006f575f3560e01c80638da5cb5b1161004d5780638da5cb5b146100dd578063953b8fb814610107578063d0e30db014610131578063fc7e286d1461013b5761006f565b8063200d2ed2146100735780633ccfd60b1461009d5780637843bc78146100b3575b5f5ffd5b34801561007e575f5ffd5b50610087610177565b60405161009491906106b2565b60405180910390f35b3480156100a8575f5ffd5b506100b1610189565b005b3480156100be575f5ffd5b506100c7610416565b6040516100d491906106e3565b60405180910390f35b3480156100e8575f5ffd5b506100f161041c565b6040516100fe919061073b565b60405180910390f35b348015610112575f5ffd5b5061011b610440565b60405161012891906106e3565b60405180910390f35b610139610446565b005b348015610146575f5ffd5b50610161600480360381019061015c9190610782565b61062a565b60405161016e91906106e3565b60405180910390f35b5f60149054906101000a900460ff1681565b5f5f9054906101000a900473ffffffffffffffffffffffffffffffffffffffff1673ffffffffffffffffffffffffffffffffffffffff163373ffffffffffffffffffffffffffffffffffffffff1614610217576040517f08c379a000000000000000000000000000000000000000000000000000000000815260040161020e90610807565b60405180910390fd5b60018081111561022a5761022961063f565b5b5f60149054906101000a900460ff16600181111561024b5761024a61063f565b5b1461028b576040517f08c379a00000000000000000000000000000000000000000000000000000000081526004016102829061086f565b60405180910390fd5b5f4790505f81116102d1576040517f08c379a00000000000000000000000000000000000000000000000000000000081526004016102c8906108d7565b60405180910390fd5b5f6001819055505f5f5f9054906101000a900473ffffffffffffffffffffffffffffffffffffffff1673ffffffffffffffffffffffffffffffffffffffff168260405161031d90610922565b5f6040518083038185875af1925050503d805f8114610357576040519150601f19603f3d011682016040523d82523d5f602084013e61035c565b606091505b50509050806103a0576040517f08c379a000000000000000000000000000000000000000000000000000000000815260040161039790610980565b60405180910390fd5b5f5f9054906101000a900473ffffffffffffffffffffffffffffffffffffffff1673ffffffffffffffffffffffffffffffffffffffff167f92ccf450a286a957af52509bc1c9939d1a6a481783e142e41e2499f0bb66ebc68360015460405161040a92919061099e565b60405180910390a25050565b60015481565b5f5f9054906101000a900473ffffffffffffffffffffffffffffffffffffffff1681565b60025481565b5f60018111156104595761045861063f565b5b5f60149054906101000a900460ff16600181111561047a5761047961063f565b5b146104ba576040517f08c379a00000000000000000000000000000000000000000000000000000000081526004016104b190610a0f565b60405180910390fd5b5f34116104fc576040517f08c379a00000000000000000000000000000000000000000000000000000000081526004016104f390610a77565b60405180910390fd5b3460035f3373ffffffffffffffffffffffffffffffffffffffff1673ffffffffffffffffffffffffffffffffffffffff1681526020019081526020015f205f8282546105489190610ac2565b925050819055503460015f8282546105609190610ac2565b925050819055503373ffffffffffffffffffffffffffffffffffffffff167f73a19dd210f1a7f902193214c0ee91dd35ee5b4d920cba8d519eca65a7b488ca346001546040516105b192919061099e565b60405180910390a2600254600154106106285760015f60146101000a81548160ff021916908360018111156105e9576105e861063f565b5b02179055507f6cc09e7b5c3e49861ebe8f6867e1618fbfc14c8d0e968fde37c4243ca02a6f8360015460405161061f91906106e3565b60405180910390a15b565b6003602052805f5260405f205f915090505481565b7f4e487b71000000000000000000000000000000000000000000000000000000005f52602160045260245ffd5b6002811061067d5761067c61063f565b5b50565b5f81905061068d8261066c565b919050565b5f61069c82610680565b9050919050565b6106ac81610692565b82525050565b5f6020820190506106c55f8301846106a3565b92915050565b5f819050919050565b6106dd816106cb565b82525050565b5f6020820190506106f65f8301846106d4565b92915050565b5f73ffffffffffffffffffffffffffffffffffffffff82169050919050565b5f610725826106fc565b9050919050565b6107358161071b565b82525050565b5f60208201905061074e5f83018461072c565b92915050565b5f5ffd5b6107618161071b565b811461076b575f5ffd5b50565b5f8135905061077c81610758565b92915050565b5f6020828403121561079757610796610754565b5b5f6107a48482850161076e565b91505092915050565b5f82825260208201905092915050565b7f4e6f742074686520636f6e7472616374206f776e6572000000000000000000005f82015250565b5f6107f16016836107ad565b91506107fc826107bd565b602082019050919050565b5f6020820190508181035f83015261081e816107e5565b9050919050565b7f436f6e7472616374206973206e6f7420636c6f736564000000000000000000005f82015250565b5f6108596016836107ad565b915061086482610825565b602082019050919050565b5f6020820190508181035f8301526108868161084d565b9050919050565b7f4e6f7468696e6720746f207769746864726177000000000000000000000000005f82015250565b5f6108c16013836107ad565b91506108cc8261088d565b602082019050919050565b5f6020820190508181035f8301526108ee816108b5565b9050919050565b5f81905092915050565b50565b5f61090d5f836108f5565b9150610918826108ff565b5f82019050919050565b5f61092c82610902565b9150819050919050565b7f5769746864726177206661696c656400000000000000000000000000000000005f82015250565b5f61096a600f836107ad565b915061097582610936565b602082019050919050565b5f6020820190508181035f8301526109978161095e565b9050919050565b5f6040820190506109b15f8301856106d4565b6109be60208301846106d4565b9392505050565b7f436f6e747261637420697320636c6f73656400000000000000000000000000005f82015250565b5f6109f96012836107ad565b9150610a04826109c5565b602082019050919050565b5f6020820190508181035f830152610a26816109ed565b9050919050565b7f4465706f736974206d757374206265203e2030000000000000000000000000005f82015250565b5f610a616013836107ad565b9150610a6c82610a2d565b602082019050919050565b5f6020820190508181035f830152610a8e81610a55565b9050919050565b7f4e487b71000000000000000000000000000000000000000000000000000000005f52601160045260245ffd5b5f610acc826106cb565b9150610ad7836106cb565b9250828201905080821115610aef57610aee610a95565b5b9291505056fea264697066735822122061ff1b59a5ffe9dbf6ffadf3830069eaa9f494c3be180996b2d6df124726cbf164736f6c634300081e0033",
					"opcodes": "PUSH1 0x80 PUSH1 0x40 MSTORE PUSH0 PUSH0 PUSH1 0x14 PUSH2 0x100 EXP DUP2 SLOAD DUP2 PUSH1 0xFF MUL NOT AND SWAP1 DUP4 PUSH1 0x1 DUP2 GT ISZERO PUSH2 0x28 JUMPI PUSH2 0x27 PUSH2 0xA6 JUMP JUMPDEST JUMPDEST MUL OR SWAP1 SSTORE POP CALLVALUE DUP1 ISZERO PUSH2 0x38 JUMPI PUSH0 PUSH0 REVERT JUMPDEST POP PUSH1 0x40 MLOAD PUSH2 0xC6D CODESIZE SUB DUP1 PUSH2 0xC6D DUP4 CODECOPY DUP2 DUP2 ADD PUSH1 0x40 MSTORE DUP2 ADD SWAP1 PUSH2 0x5A SWAP2 SWAP1 PUSH2 0x10A JUMP JUMPDEST CALLER PUSH0 PUSH0 PUSH2 0x100 EXP DUP2 SLOAD DUP2 PUSH20 0xFFFFFFFFFFFFFFFFFFFFFFFFFFFFFFFFFFFFFFFF MUL NOT AND SWAP1 DUP4 PUSH20 0xFFFFFFFFFFFFFFFFFFFFFFFFFFFFFFFFFFFFFFFF AND MUL OR SWAP1 SSTORE POP DUP1 PUSH1 0x2 DUP2 SWAP1 SSTORE POP POP PUSH2 0x135 JUMP JUMPDEST PUSH32 0x4E487B7100000000000000000000000000000000000000000000000000000000 PUSH0 MSTORE PUSH1 0x21 PUSH1 0x4 MSTORE PUSH1 0x24 PUSH0 REVERT JUMPDEST PUSH0 PUSH0 REVERT JUMPDEST PUSH0 DUP2 SWAP1 POP SWAP2 SWAP1 POP JUMP JUMPDEST PUSH2 0xE9 DUP2 PUSH2 0xD7 JUMP JUMPDEST DUP2 EQ PUSH2 0xF3 JUMPI PUSH0 PUSH0 REVERT JUMPDEST POP JUMP JUMPDEST PUSH0 DUP2 MLOAD SWAP1 POP PUSH2 0x104 DUP2 PUSH2 0xE0 JUMP JUMPDEST SWAP3 SWAP2 POP POP JUMP JUMPDEST PUSH0 PUSH1 0x20 DUP3 DUP5 SUB SLT ISZERO PUSH2 0x11F JUMPI PUSH2 0x11E PUSH2 0xD3 JUMP JUMPDEST JUMPDEST PUSH0 PUSH2 0x12C DUP5 DUP3 DUP6 ADD PUSH2 0xF6 JUMP JUMPDEST SWAP2 POP POP SWAP3 SWAP2 POP POP JUMP JUMPDEST PUSH2 0xB2B DUP1 PUSH2 0x142 PUSH0 CODECOPY PUSH0 RETURN INVALID PUSH1 0x80 PUSH1 0x40 MSTORE PUSH1 0x4 CALLDATASIZE LT PUSH2 0x6F JUMPI PUSH0 CALLDATALOAD PUSH1 0xE0 SHR DUP1 PUSH4 0x8DA5CB5B GT PUSH2 0x4D JUMPI DUP1 PUSH4 0x8DA5CB5B EQ PUSH2 0xDD JUMPI DUP1 PUSH4 0x953B8FB8 EQ PUSH2 0x107 JUMPI DUP1 PUSH4 0xD0E30DB0 EQ PUSH2 0x131 JUMPI DUP1 PUSH4 0xFC7E286D EQ PUSH2 0x13B JUMPI PUSH2 0x6F JUMP JUMPDEST DUP1 PUSH4 0x200D2ED2 EQ PUSH2 0x73 JUMPI DUP1 PUSH4 0x3CCFD60B EQ PUSH2 0x9D JUMPI DUP1 PUSH4 0x7843BC78 EQ PUSH2 0xB3 JUMPI JUMPDEST PUSH0 PUSH0 REVERT JUMPDEST CALLVALUE DUP1 ISZERO PUSH2 0x7E JUMPI PUSH0 PUSH0 REVERT JUMPDEST POP PUSH2 0x87 PUSH2 0x177 JUMP JUMPDEST PUSH1 0x40 MLOAD PUSH2 0x94 SWAP2 SWAP1 PUSH2 0x6B2 JUMP JUMPDEST PUSH1 0x40 MLOAD DUP1 SWAP2 SUB SWAP1 RETURN JUMPDEST CALLVALUE DUP1 ISZERO PUSH2 0xA8 JUMPI PUSH0 PUSH0 REVERT JUMPDEST POP PUSH2 0xB1 PUSH2 0x189 JUMP JUMPDEST STOP JUMPDEST CALLVALUE DUP1 ISZERO PUSH2 0xBE JUMPI PUSH0 PUSH0 REVERT JUMPDEST POP PUSH2 0xC7 PUSH2 0x416 JUMP JUMPDEST PUSH1 0x40 MLOAD PUSH2 0xD4 SWAP2 SWAP1 PUSH2 0x6E3 JUMP JUMPDEST PUSH1 0x40 MLOAD DUP1 SWAP2 SUB SWAP1 RETURN JUMPDEST CALLVALUE DUP1 ISZERO PUSH2 0xE8 JUMPI PUSH0 PUSH0 REVERT JUMPDEST POP PUSH2 0xF1 PUSH2 0x41C JUMP JUMPDEST PUSH1 0x40 MLOAD PUSH2 0xFE SWAP2 SWAP1 PUSH2 0x73B JUMP JUMPDEST PUSH1 0x40 MLOAD DUP1 SWAP2 SUB SWAP1 RETURN JUMPDEST CALLVALUE DUP1 ISZERO PUSH2 0x112 JUMPI PUSH0 PUSH0 REVERT JUMPDEST POP PUSH2 0x11B PUSH2 0x440 JUMP JUMPDEST PUSH1 0x40 MLOAD PUSH2 0x128 SWAP2 SWAP1 PUSH2 0x6E3 JUMP JUMPDEST PUSH1 0x40 MLOAD DUP1 SWAP2 SUB SWAP1 RETURN JUMPDEST PUSH2 0x139 PUSH2 0x446 JUMP JUMPDEST STOP JUMPDEST CALLVALUE DUP1 ISZERO PUSH2 0x146 JUMPI PUSH0 PUSH0 REVERT JUMPDEST POP PUSH2 0x161 PUSH1 0x4 DUP1 CALLDATASIZE SUB DUP2 ADD SWAP1 PUSH2 0x15C SWAP2 SWAP1 PUSH2 0x782 JUMP JUMPDEST PUSH2 0x62A JUMP JUMPDEST PUSH1 0x40 MLOAD PUSH2 0x16E SWAP2 SWAP1 PUSH2 0x6E3 JUMP JUMPDEST PUSH1 0x40 MLOAD DUP1 SWAP2 SUB SWAP1 RETURN JUMPDEST PUSH0 PUSH1 0x14 SWAP1 SLOAD SWAP1 PUSH2 0x100 EXP SWAP1 DIV PUSH1 0xFF AND DUP2 JUMP JUMPDEST PUSH0 PUSH0 SWAP1 SLOAD SWAP1 PUSH2 0x100 EXP SWAP1 DIV PUSH20 0xFFFFFFFFFFFFFFFFFFFFFFFFFFFFFFFFFFFFFFFF AND PUSH20 0xFFFFFFFFFFFFFFFFFFFFFFFFFFFFFFFFFFFFFFFF AND CALLER PUSH20 0xFFFFFFFFFFFFFFFFFFFFFFFFFFFFFFFFFFFFFFFF AND EQ PUSH2 0x217 JUMPI PUSH1 0x40 MLOAD PUSH32 0x8C379A000000000000000000000000000000000000000000000000000000000 DUP2 MSTORE PUSH1 0x4 ADD PUSH2 0x20E SWAP1 PUSH2 0x807 JUMP JUMPDEST PUSH1 0x40 MLOAD DUP1 SWAP2 SUB SWAP1 REVERT JUMPDEST PUSH1 0x1 DUP1 DUP2 GT ISZERO PUSH2 0x22A JUMPI PUSH2 0x229 PUSH2 0x63F JUMP JUMPDEST JUMPDEST PUSH0 PUSH1 0x14 SWAP1 SLOAD SWAP1 PUSH2 0x100 EXP SWAP1 DIV PUSH1 0xFF AND PUSH1 0x1 DUP2 GT ISZERO PUSH2 0x24B JUMPI PUSH2 0x24A PUSH2 0x63F JUMP JUMPDEST JUMPDEST EQ PUSH2 0x28B JUMPI PUSH1 0x40 MLOAD PUSH32 0x8C379A000000000000000000000000000000000000000000000000000000000 DUP2 MSTORE PUSH1 0x4 ADD PUSH2 0x282 SWAP1 PUSH2 0x86F JUMP JUMPDEST PUSH1 0x40 MLOAD DUP1 SWAP2 SUB SWAP1 REVERT JUMPDEST PUSH0 SELFBALANCE SWAP1 POP PUSH0 DUP2 GT PUSH2 0x2D1 JUMPI PUSH1 0x40 MLOAD PUSH32 0x8C379A000000000000000000000000000000000000000000000000000000000 DUP2 MSTORE PUSH1 0x4 ADD PUSH2 0x2C8 SWAP1 PUSH2 0x8D7 JUMP JUMPDEST PUSH1 0x40 MLOAD DUP1 SWAP2 SUB SWAP1 REVERT JUMPDEST PUSH0 PUSH1 0x1 DUP2 SWAP1 SSTORE POP PUSH0 PUSH0 PUSH0 SWAP1 SLOAD SWAP1 PUSH2 0x100 EXP SWAP1 DIV PUSH20 0xFFFFFFFFFFFFFFFFFFFFFFFFFFFFFFFFFFFFFFFF AND PUSH20 0xFFFFFFFFFFFFFFFFFFFFFFFFFFFFFFFFFFFFFFFF AND DUP3 PUSH1 0x40 MLOAD PUSH2 0x31D SWAP1 PUSH2 0x922 JUMP JUMPDEST PUSH0 PUSH1 0x40 MLOAD DUP1 DUP4 SUB DUP2 DUP6 DUP8 GAS CALL SWAP3 POP POP POP RETURNDATASIZE DUP1 PUSH0 DUP2 EQ PUSH2 0x357 JUMPI PUSH1 0x40 MLOAD SWAP2 POP PUSH1 0x1F NOT PUSH1 0x3F RETURNDATASIZE ADD AND DUP3 ADD PUSH1 0x40 MSTORE RETURNDATASIZE DUP3 MSTORE RETURNDATASIZE PUSH0 PUSH1 0x20 DUP5 ADD RETURNDATACOPY PUSH2 0x35C JUMP JUMPDEST PUSH1 0x60 SWAP2 POP JUMPDEST POP POP SWAP1 POP DUP1 PUSH2 0x3A0 JUMPI PUSH1 0x40 MLOAD PUSH32 0x8C379A000000000000000000000000000000000000000000000000000000000 DUP2 MSTORE PUSH1 0x4 ADD PUSH2 0x397 SWAP1 PUSH2 0x980 JUMP JUMPDEST PUSH1 0x40 MLOAD DUP1 SWAP2 SUB SWAP1 REVERT JUMPDEST PUSH0 PUSH0 SWAP1 SLOAD SWAP1 PUSH2 0x100 EXP SWAP1 DIV PUSH20 0xFFFFFFFFFFFFFFFFFFFFFFFFFFFFFFFFFFFFFFFF AND PUSH20 0xFFFFFFFFFFFFFFFFFFFFFFFFFFFFFFFFFFFFFFFF AND PUSH32 0x92CCF450A286A957AF52509BC1C9939D1A6A481783E142E41E2499F0BB66EBC6 DUP4 PUSH1 0x1 SLOAD PUSH1 0x40 MLOAD PUSH2 0x40A SWAP3 SWAP2 SWAP1 PUSH2 0x99E JUMP JUMPDEST PUSH1 0x40 MLOAD DUP1 SWAP2 SUB SWAP1 LOG2 POP POP JUMP JUMPDEST PUSH1 0x1 SLOAD DUP2 JUMP JUMPDEST PUSH0 PUSH0 SWAP1 SLOAD SWAP1 PUSH2 0x100 EXP SWAP1 DIV PUSH20 0xFFFFFFFFFFFFFFFFFFFFFFFFFFFFFFFFFFFFFFFF AND DUP2 JUMP JUMPDEST PUSH1 0x2 SLOAD DUP2 JUMP JUMPDEST PUSH0 PUSH1 0x1 DUP2 GT ISZERO PUSH2 0x459 JUMPI PUSH2 0x458 PUSH2 0x63F JUMP JUMPDEST JUMPDEST PUSH0 PUSH1 0x14 SWAP1 SLOAD SWAP1 PUSH2 0x100 EXP SWAP1 DIV PUSH1 0xFF AND PUSH1 0x1 DUP2 GT ISZERO PUSH2 0x47A JUMPI PUSH2 0x479 PUSH2 0x63F JUMP JUMPDEST JUMPDEST EQ PUSH2 0x4BA JUMPI PUSH1 0x40 MLOAD PUSH32 0x8C379A000000000000000000000000000000000000000000000000000000000 DUP2 MSTORE PUSH1 0x4 ADD PUSH2 0x4B1 SWAP1 PUSH2 0xA0F JUMP JUMPDEST PUSH1 0x40 MLOAD DUP1 SWAP2 SUB SWAP1 REVERT JUMPDEST PUSH0 CALLVALUE GT PUSH2 0x4FC JUMPI PUSH1 0x40 MLOAD PUSH32 0x8C379A000000000000000000000000000000000000000000000000000000000 DUP2 MSTORE PUSH1 0x4 ADD PUSH2 0x4F3 SWAP1 PUSH2 0xA77 JUMP JUMPDEST PUSH1 0x40 MLOAD DUP1 SWAP2 SUB SWAP1 REVERT JUMPDEST CALLVALUE PUSH1 0x3 PUSH0 CALLER PUSH20 0xFFFFFFFFFFFFFFFFFFFFFFFFFFFFFFFFFFFFFFFF AND PUSH20 0xFFFFFFFFFFFFFFFFFFFFFFFFFFFFFFFFFFFFFFFF AND DUP2 MSTORE PUSH1 0x20 ADD SWAP1 DUP2 MSTORE PUSH1 0x20 ADD PUSH0 KECCAK256 PUSH0 DUP3 DUP3 SLOAD PUSH2 0x548 SWAP2 SWAP1 PUSH2 0xAC2 JUMP JUMPDEST SWAP3 POP POP DUP2 SWAP1 SSTORE POP CALLVALUE PUSH1 0x1 PUSH0 DUP3 DUP3 SLOAD PUSH2 0x560 SWAP2 SWAP1 PUSH2 0xAC2 JUMP JUMPDEST SWAP3 POP POP DUP2 SWAP1 SSTORE POP CALLER PUSH20 0xFFFFFFFFFFFFFFFFFFFFFFFFFFFFFFFFFFFFFFFF AND PUSH32 0x73A19DD210F1A7F902193214C0EE91DD35EE5B4D920CBA8D519ECA65A7B488CA CALLVALUE PUSH1 0x1 SLOAD PUSH1 0x40 MLOAD PUSH2 0x5B1 SWAP3 SWAP2 SWAP1 PUSH2 0x99E JUMP JUMPDEST PUSH1 0x40 MLOAD DUP1 SWAP2 SUB SWAP1 LOG2 PUSH1 0x2 SLOAD PUSH1 0x1 SLOAD LT PUSH2 0x628 JUMPI PUSH1 0x1 PUSH0 PUSH1 0x14 PUSH2 0x100 EXP DUP2 SLOAD DUP2 PUSH1 0xFF MUL NOT AND SWAP1 DUP4 PUSH1 0x1 DUP2 GT ISZERO PUSH2 0x5E9 JUMPI PUSH2 0x5E8 PUSH2 0x63F JUMP JUMPDEST JUMPDEST MUL OR SWAP1 SSTORE POP PUSH32 0x6CC09E7B5C3E49861EBE8F6867E1618FBFC14C8D0E968FDE37C4243CA02A6F83 PUSH1 0x1 SLOAD PUSH1 0x40 MLOAD PUSH2 0x61F SWAP2 SWAP1 PUSH2 0x6E3 JUMP JUMPDEST PUSH1 0x40 MLOAD DUP1 SWAP2 SUB SWAP1 LOG1 JUMPDEST JUMP JUMPDEST PUSH1 0x3 PUSH1 0x20 MSTORE DUP1 PUSH0 MSTORE PUSH1 0x40 PUSH0 KECCAK256 PUSH0 SWAP2 POP SWAP1 POP SLOAD DUP2 JUMP JUMPDEST PUSH32 0x4E487B7100000000000000000000000000000000000000000000000000000000 PUSH0 MSTORE PUSH1 0x21 PUSH1 0x4 MSTORE PUSH1 0x24 PUSH0 REVERT JUMPDEST PUSH1 0x2 DUP2 LT PUSH2 0x67D JUMPI PUSH2 0x67C PUSH2 0x63F JUMP JUMPDEST JUMPDEST POP JUMP JUMPDEST PUSH0 DUP2 SWAP1 POP PUSH2 0x68D DUP3 PUSH2 0x66C JUMP JUMPDEST SWAP2 SWAP1 POP JUMP JUMPDEST PUSH0 PUSH2 0x69C DUP3 PUSH2 0x680 JUMP JUMPDEST SWAP1 POP SWAP2 SWAP1 POP JUMP JUMPDEST PUSH2 0x6AC DUP2 PUSH2 0x692 JUMP JUMPDEST DUP3 MSTORE POP POP JUMP JUMPDEST PUSH0 PUSH1 0x20 DUP3 ADD SWAP1 POP PUSH2 0x6C5 PUSH0 DUP4 ADD DUP5 PUSH2 0x6A3 JUMP JUMPDEST SWAP3 SWAP2 POP POP JUMP JUMPDEST PUSH0 DUP2 SWAP1 POP SWAP2 SWAP1 POP JUMP JUMPDEST PUSH2 0x6DD DUP2 PUSH2 0x6CB JUMP JUMPDEST DUP3 MSTORE POP POP JUMP JUMPDEST PUSH0 PUSH1 0x20 DUP3 ADD SWAP1 POP PUSH2 0x6F6 PUSH0 DUP4 ADD DUP5 PUSH2 0x6D4 JUMP JUMPDEST SWAP3 SWAP2 POP POP JUMP JUMPDEST PUSH0 PUSH20 0xFFFFFFFFFFFFFFFFFFFFFFFFFFFFFFFFFFFFFFFF DUP3 AND SWAP1 POP SWAP2 SWAP1 POP JUMP JUMPDEST PUSH0 PUSH2 0x725 DUP3 PUSH2 0x6FC JUMP JUMPDEST SWAP1 POP SWAP2 SWAP1 POP JUMP JUMPDEST PUSH2 0x735 DUP2 PUSH2 0x71B JUMP JUMPDEST DUP3 MSTORE POP POP JUMP JUMPDEST PUSH0 PUSH1 0x20 DUP3 ADD SWAP1 POP PUSH2 0x74E PUSH0 DUP4 ADD DUP5 PUSH2 0x72C JUMP JUMPDEST SWAP3 SWAP2 POP POP JUMP JUMPDEST PUSH0 PUSH0 REVERT JUMPDEST PUSH2 0x761 DUP2 PUSH2 0x71B JUMP JUMPDEST DUP2 EQ PUSH2 0x76B JUMPI PUSH0 PUSH0 REVERT JUMPDEST POP JUMP JUMPDEST PUSH0 DUP2 CALLDATALOAD SWAP1 POP PUSH2 0x77C DUP2 PUSH2 0x758 JUMP JUMPDEST SWAP3 SWAP2 POP POP JUMP JUMPDEST PUSH0 PUSH1 0x20 DUP3 DUP5 SUB SLT ISZERO PUSH2 0x797 JUMPI PUSH2 0x796 PUSH2 0x754 JUMP JUMPDEST JUMPDEST PUSH0 PUSH2 0x7A4 DUP5 DUP3 DUP6 ADD PUSH2 0x76E JUMP JUMPDEST SWAP2 POP POP SWAP3 SWAP2 POP POP JUMP JUMPDEST PUSH0 DUP3 DUP3 MSTORE PUSH1 0x20 DUP3 ADD SWAP1 POP SWAP3 SWAP2 POP POP JUMP JUMPDEST PUSH32 0x4E6F742074686520636F6E7472616374206F776E657200000000000000000000 PUSH0 DUP3 ADD MSTORE POP JUMP JUMPDEST PUSH0 PUSH2 0x7F1 PUSH1 0x16 DUP4 PUSH2 0x7AD JUMP JUMPDEST SWAP2 POP PUSH2 0x7FC DUP3 PUSH2 0x7BD JUMP JUMPDEST PUSH1 0x20 DUP3 ADD SWAP1 POP SWAP2 SWAP1 POP JUMP JUMPDEST PUSH0 PUSH1 0x20 DUP3 ADD SWAP1 POP DUP2 DUP2 SUB PUSH0 DUP4 ADD MSTORE PUSH2 0x81E DUP2 PUSH2 0x7E5 JUMP JUMPDEST SWAP1 POP SWAP2 SWAP1 POP JUMP JUMPDEST PUSH32 0x436F6E7472616374206973206E6F7420636C6F73656400000000000000000000 PUSH0 DUP3 ADD MSTORE POP JUMP JUMPDEST PUSH0 PUSH2 0x859 PUSH1 0x16 DUP4 PUSH2 0x7AD JUMP JUMPDEST SWAP2 POP PUSH2 0x864 DUP3 PUSH2 0x825 JUMP JUMPDEST PUSH1 0x20 DUP3 ADD SWAP1 POP SWAP2 SWAP1 POP JUMP JUMPDEST PUSH0 PUSH1 0x20 DUP3 ADD SWAP1 POP DUP2 DUP2 SUB PUSH0 DUP4 ADD MSTORE PUSH2 0x886 DUP2 PUSH2 0x84D JUMP JUMPDEST SWAP1 POP SWAP2 SWAP1 POP JUMP JUMPDEST PUSH32 0x4E6F7468696E6720746F20776974686472617700000000000000000000000000 PUSH0 DUP3 ADD MSTORE POP JUMP JUMPDEST PUSH0 PUSH2 0x8C1 PUSH1 0x13 DUP4 PUSH2 0x7AD JUMP JUMPDEST SWAP2 POP PUSH2 0x8CC DUP3 PUSH2 0x88D JUMP JUMPDEST PUSH1 0x20 DUP3 ADD SWAP1 POP SWAP2 SWAP1 POP JUMP JUMPDEST PUSH0 PUSH1 0x20 DUP3 ADD SWAP1 POP DUP2 DUP2 SUB PUSH0 DUP4 ADD MSTORE PUSH2 0x8EE DUP2 PUSH2 0x8B5 JUMP JUMPDEST SWAP1 POP SWAP2 SWAP1 POP JUMP JUMPDEST PUSH0 DUP2 SWAP1 POP SWAP3 SWAP2 POP POP JUMP JUMPDEST POP JUMP JUMPDEST PUSH0 PUSH2 0x90D PUSH0 DUP4 PUSH2 0x8F5 JUMP JUMPDEST SWAP2 POP PUSH2 0x918 DUP3 PUSH2 0x8FF JUMP JUMPDEST PUSH0 DUP3 ADD SWAP1 POP SWAP2 SWAP1 POP JUMP JUMPDEST PUSH0 PUSH2 0x92C DUP3 PUSH2 0x902 JUMP JUMPDEST SWAP2 POP DUP2 SWAP1 POP SWAP2 SWAP1 POP JUMP JUMPDEST PUSH32 0x5769746864726177206661696C65640000000000000000000000000000000000 PUSH0 DUP3 ADD MSTORE POP JUMP JUMPDEST PUSH0 PUSH2 0x96A PUSH1 0xF DUP4 PUSH2 0x7AD JUMP JUMPDEST SWAP2 POP PUSH2 0x975 DUP3 PUSH2 0x936 JUMP JUMPDEST PUSH1 0x20 DUP3 ADD SWAP1 POP SWAP2 SWAP1 POP JUMP JUMPDEST PUSH0 PUSH1 0x20 DUP3 ADD SWAP1 POP DUP2 DUP2 SUB PUSH0 DUP4 ADD MSTORE PUSH2 0x997 DUP2 PUSH2 0x95E JUMP JUMPDEST SWAP1 POP SWAP2 SWAP1 POP JUMP JUMPDEST PUSH0 PUSH1 0x40 DUP3 ADD SWAP1 POP PUSH2 0x9B1 PUSH0 DUP4 ADD DUP6 PUSH2 0x6D4 JUMP JUMPDEST PUSH2 0x9BE PUSH1 0x20 DUP4 ADD DUP5 PUSH2 0x6D4 JUMP JUMPDEST SWAP4 SWAP3 POP POP POP JUMP JUMPDEST PUSH32 0x436F6E747261637420697320636C6F7365640000000000000000000000000000 PUSH0 DUP3 ADD MSTORE POP JUMP JUMPDEST PUSH0 PUSH2 0x9F9 PUSH1 0x12 DUP4 PUSH2 0x7AD JUMP JUMPDEST SWAP2 POP PUSH2 0xA04 DUP3 PUSH2 0x9C5 JUMP JUMPDEST PUSH1 0x20 DUP3 ADD SWAP1 POP SWAP2 SWAP1 POP JUMP JUMPDEST PUSH0 PUSH1 0x20 DUP3 ADD SWAP1 POP DUP2 DUP2 SUB PUSH0 DUP4 ADD MSTORE PUSH2 0xA26 DUP2 PUSH2 0x9ED JUMP JUMPDEST SWAP1 POP SWAP2 SWAP1 POP JUMP JUMPDEST PUSH32 0x4465706F736974206D757374206265203E203000000000000000000000000000 PUSH0 DUP3 ADD MSTORE POP JUMP JUMPDEST PUSH0 PUSH2 0xA61 PUSH1 0x13 DUP4 PUSH2 0x7AD JUMP JUMPDEST SWAP2 POP PUSH2 0xA6C DUP3 PUSH2 0xA2D JUMP JUMPDEST PUSH1 0x20 DUP3 ADD SWAP1 POP SWAP2 SWAP1 POP JUMP JUMPDEST PUSH0 PUSH1 0x20 DUP3 ADD SWAP1 POP DUP2 DUP2 SUB PUSH0 DUP4 ADD MSTORE PUSH2 0xA8E DUP2 PUSH2 0xA55 JUMP JUMPDEST SWAP1 POP SWAP2 SWAP1 POP JUMP JUMPDEST PUSH32 0x4E487B7100000000000000000000000000000000000000000000000000000000 PUSH0 MSTORE PUSH1 0x11 PUSH1 0x4 MSTORE PUSH1 0x24 PUSH0 REVERT JUMPDEST PUSH0 PUSH2 0xACC DUP3 PUSH2 0x6CB JUMP JUMPDEST SWAP2 POP PUSH2 0xAD7 DUP4 PUSH2 0x6CB JUMP JUMPDEST SWAP3 POP DUP3 DUP3 ADD SWAP1 POP DUP1 DUP3 GT ISZERO PUSH2 0xAEF JUMPI PUSH2 0xAEE PUSH2 0xA95 JUMP JUMPDEST JUMPDEST SWAP3 SWAP2 POP POP JUMP INVALID LOG2 PUSH5 0x6970667358 0x22 SLT KECCAK256 PUSH2 0xFF1B MSIZE 0xA5 SELFDESTRUCT 0xE9 0xDB 0xF6 SELFDESTRUCT 0xAD RETURN DUP4 STOP PUSH10 0xEAA9F494C3BE180996B2 0xD6 0xDF SLT SELFBALANCE 0x26 0xCB CALL PUSH5 0x736F6C6343 STOP ADDMOD 0x1E STOP CALLER "
				},
				"gasEstimates": {
					"creation": {
						"codeDepositCost": "571800",
						"executionCost": "infinite",
						"totalCost": "infinite"
					},
					"external": {
						"deposit()": "infinite",
						"deposits(address)": "2868",
						"owner()": "2507",
						"status()": "2605",
						"targetAmount()": "2447",
						"totalUserDeposits()": "2470",
						"withdraw()": "infinite"
					}
				},
				"methodIdentifiers": {
					"deposit()": "d0e30db0",
					"deposits(address)": "fc7e286d",
					"owner()": "8da5cb5b",
					"status()": "200d2ed2",
					"targetAmount()": "953b8fb8",
					"totalUserDeposits()": "7843bc78",
					"withdraw()": "3ccfd60b"
				}
			},
			"storageLayout": {
				"storage": [
					{
						"astId": 3,
						"contract": "tasks/Task_11.sol:Task_11",
						"label": "owner",
						"offset": 0,
						"slot": "0",
						"type": "t_address"
					},
					{
						"astId": 11,
						"contract": "tasks/Task_11.sol:Task_11",
						"label": "status",
						"offset": 20,
						"slot": "0",
						"type": "t_enum(Status)6"
					},
					{
						"astId": 13,
						"contract": "tasks/Task_11.sol:Task_11",
						"label": "totalUserDeposits",
						"offset": 0,
						"slot": "1",
						"type": "t_uint256"
					},
					{
						"astId": 15,
						"contract": "tasks/Task_11.sol:Task_11",
						"label": "targetAmount",
						"offset": 0,
						"slot": "2",
						"type": "t_uint256"
					},
					{
						"astId": 19,
						"contract": "tasks/Task_11.sol:Task_11",
						"label": "deposits",
						"offset": 0,
						"slot": "3",
						"type": "t_mapping(t_address,t_uint256)"
					}
				],
				"types": {
					"t_address": {
						"encoding": "inplace",
						"label": "address",
						"numberOfBytes": "20"
					},
					"t_enum(Status)6": {
						"encoding": "inplace",
						"label": "enum Task_11.Status",
						"numberOfBytes": "1"
					},
					"t_mapping(t_address,t_uint256)": {
						"encoding": "mapping",
						"key": "t_address",
						"label": "mapping(address => uint256)",
						"numberOfBytes": "32",
						"value": "t_uint256"
					},
					"t_uint256": {
						"encoding": "inplace",
						"label": "uint256",
						"numberOfBytes": "32"
					}
				}
			},
			"userdoc": {
				"kind": "user",
				"methods": {},
				"version": 1
			}
		}
	}
}