{
	"tasks/Task_09.sol": {
		"Task_09": {
			"abi": [
				{
					"inputs": [],
					"stateMutability": "nonpayable",
					"type": "constructor"
				},
				{
					"anonymous": false,
					"inputs": [
						{
							"indexed": true,
							"internalType": "uint256",
							"name": "userId",
							"type": "uint256"
						},
						{
							"indexed": false,
							"internalType": "string",
							"name": "message",
							"type": "string"
						}
					],
					"name": "UserAdded",
					"type": "event"
				},
				{
					"anonymous": false,
					"inputs": [
						{
							"indexed": true,
							"internalType": "uint256",
							"name": "userId",
							"type": "uint256"
						},
						{
							"indexed": false,
							"internalType": "string",
							"name": "message",
							"type": "string"
						}
					],
					"name": "UserRemoved",
					"type": "event"
				},
				{
					"inputs": [
						{
							"internalType": "uint256",
							"name": "_userId",
							"type": "uint256"
						}
					],
					"name": "addUser",
					"outputs": [],
					"stateMutability": "nonpayable",
					"type": "function"
				},
				{
					"inputs": [
						{
							"internalType": "bytes1[4]",
							"name": "_data",
							"type": "bytes1[4]"
						}
					],
					"name": "getFixedByteArraySum",
					"outputs": [
						{
							"internalType": "uint8",
							"name": "",
							"type": "uint8"
						}
					],
					"stateMutability": "pure",
					"type": "function"
				},
				{
					"inputs": [],
					"name": "owner",
					"outputs": [
						{
							"internalType": "address",
							"name": "",
							"type": "address"
						}
					],
					"stateMutability": "view",
					"type": "function"
				},
				{
					"inputs": [
						{
							"internalType": "uint256",
							"name": "_userId",
							"type": "uint256"
						}
					],
					"name": "removeUser",
					"outputs": [],
					"stateMutability": "nonpayable",
					"type": "function"
				},
				{
					"inputs": [
						{
							"internalType": "uint256",
							"name": "",
							"type": "uint256"
						}
					],
					"name": "users",
					"outputs": [
						{
							"internalType": "bool",
							"name": "",
							"type": "bool"
						}
					],
					"stateMutability": "view",
					"type": "function"
				}
			],
			"devdoc": {
				"kind": "dev",
				"methods": {},
				"version": 1
			},
			"evm": {
				"assembly": "    /* \"tasks/Task_09.sol\":57:1670  contract Task_09 {... */\n  mstore(0x40, 0x80)\n    /* \"tasks/Task_09.sol\":107:156  constructor() {... */\n  callvalue\n  dup1\n  iszero\n  tag_1\n  jumpi\n  revert(0x00, 0x00)\ntag_1:\n  pop\n    /* \"tasks/Task_09.sol\":139:149  msg.sender */\n  caller\n    /* \"tasks/Task_09.sol\":131:136  owner */\n  0x00\n  0x00\n    /* \"tasks/Task_09.sol\":131:149  owner = msg.sender */\n  0x0100\n  exp\n  dup2\n  sload\n  dup2\n  0xffffffffffffffffffffffffffffffffffffffff\n  mul\n  not\n  and\n  swap1\n  dup4\n  0xffffffffffffffffffffffffffffffffffffffff\n  and\n  mul\n  or\n  swap1\n  sstore\n  pop\n    /* \"tasks/Task_09.sol\":57:1670  contract Task_09 {... */\n  dataSize(sub_0)\n  dup1\n  dataOffset(sub_0)\n  0x00\n  codecopy\n  0x00\n  return\nstop\n\nsub_0: assembly {\n        /* \"tasks/Task_09.sol\":57:1670  contract Task_09 {... */\n      mstore(0x40, 0x80)\n      callvalue\n      dup1\n      iszero\n      tag_1\n      jumpi\n      revert(0x00, 0x00)\n    tag_1:\n      pop\n      jumpi(tag_2, lt(calldatasize, 0x04))\n      shr(0xe0, calldataload(0x00))\n      dup1\n      0x11dc4703\n      eq\n      tag_3\n      jumpi\n      dup1\n      0x365b98b2\n      eq\n      tag_4\n      jumpi\n      dup1\n      0x8da5cb5b\n      eq\n      tag_5\n      jumpi\n      dup1\n      0xd9207d1b\n      eq\n      tag_6\n      jumpi\n      dup1\n      0xe1d81736\n      eq\n      tag_7\n      jumpi\n    tag_2:\n      revert(0x00, 0x00)\n        /* \"tasks/Task_09.sol\":884:1095  function removeUser(uint256 _userId) external onlyOwner {... */\n    tag_3:\n      tag_8\n      0x04\n      dup1\n      calldatasize\n      sub\n      dup2\n      add\n      swap1\n      tag_9\n      swap2\n      swap1\n      tag_10\n      jump\t// in\n    tag_9:\n      tag_11\n      jump\t// in\n    tag_8:\n      stop\n        /* \"tasks/Task_09.sol\":534:571  mapping(uint256 => bool) public users */\n    tag_4:\n      tag_12\n      0x04\n      dup1\n      calldatasize\n      sub\n      dup2\n      add\n      swap1\n      tag_13\n      swap2\n      swap1\n      tag_10\n      jump\t// in\n    tag_13:\n      tag_14\n      jump\t// in\n    tag_12:\n      mload(0x40)\n      tag_15\n      swap2\n      swap1\n      tag_16\n      jump\t// in\n    tag_15:\n      mload(0x40)\n      dup1\n      swap2\n      sub\n      swap1\n      return\n        /* \"tasks/Task_09.sol\":80:100  address public owner */\n    tag_5:\n      tag_17\n      tag_18\n      jump\t// in\n    tag_17:\n      mload(0x40)\n      tag_19\n      swap2\n      swap1\n      tag_20\n      jump\t// in\n    tag_19:\n      mload(0x40)\n      dup1\n      swap2\n      sub\n      swap1\n      return\n        /* \"tasks/Task_09.sol\":1439:1668  function getFixedByteArraySum(bytes1[4] memory _data) public pure returns (uint8) {... */\n    tag_6:\n      tag_21\n      0x04\n      dup1\n      calldatasize\n      sub\n      dup2\n      add\n      swap1\n      tag_22\n      swap2\n      swap1\n      tag_23\n      jump\t// in\n    tag_22:\n      tag_24\n      jump\t// in\n    tag_21:\n      mload(0x40)\n      tag_25\n      swap2\n      swap1\n      tag_26\n      jump\t// in\n    tag_25:\n      mload(0x40)\n      dup1\n      swap2\n      sub\n      swap1\n      return\n        /* \"tasks/Task_09.sol\":674:878  function addUser(uint256 _userId) external onlyOwner {... */\n    tag_7:\n      tag_27\n      0x04\n      dup1\n      calldatasize\n      sub\n      dup2\n      add\n      swap1\n      tag_28\n      swap2\n      swap1\n      tag_10\n      jump\t// in\n    tag_28:\n      tag_29\n      jump\t// in\n    tag_27:\n      stop\n        /* \"tasks/Task_09.sol\":884:1095  function removeUser(uint256 _userId) external onlyOwner {... */\n    tag_11:\n        /* \"tasks/Task_09.sol\":631:636  owner */\n      0x00\n      0x00\n      swap1\n      sload\n      swap1\n      0x0100\n      exp\n      swap1\n      div\n      0xffffffffffffffffffffffffffffffffffffffff\n      and\n        /* \"tasks/Task_09.sol\":617:636  msg.sender == owner */\n      0xffffffffffffffffffffffffffffffffffffffff\n      and\n        /* \"tasks/Task_09.sol\":617:627  msg.sender */\n      caller\n        /* \"tasks/Task_09.sol\":617:636  msg.sender == owner */\n      0xffffffffffffffffffffffffffffffffffffffff\n      and\n      eq\n        /* \"tasks/Task_09.sol\":609:650  require(msg.sender == owner, \"Not owner\") */\n      tag_31\n      jumpi\n      mload(0x40)\n      0x08c379a000000000000000000000000000000000000000000000000000000000\n      dup2\n      mstore\n      0x04\n      add\n      tag_32\n      swap1\n      tag_33\n      jump\t// in\n    tag_32:\n      mload(0x40)\n      dup1\n      swap2\n      sub\n      swap1\n      revert\n    tag_31:\n        /* \"tasks/Task_09.sol\":958:963  users */\n      0x01\n        /* \"tasks/Task_09.sol\":958:972  users[_userId] */\n      0x00\n        /* \"tasks/Task_09.sol\":964:971  _userId */\n      dup3\n        /* \"tasks/Task_09.sol\":958:972  users[_userId] */\n      dup2\n      mstore\n      0x20\n      add\n      swap1\n      dup2\n      mstore\n      0x20\n      add\n      0x00\n      keccak256\n      0x00\n      swap1\n      sload\n      swap1\n      0x0100\n      exp\n      swap1\n      div\n      0xff\n      and\n        /* \"tasks/Task_09.sol\":950:996  require(users[_userId], \"User does not exist\") */\n      tag_35\n      jumpi\n      mload(0x40)\n      0x08c379a000000000000000000000000000000000000000000000000000000000\n      dup2\n      mstore\n      0x04\n      add\n      tag_36\n      swap1\n      tag_37\n      jump\t// in\n    tag_36:\n      mload(0x40)\n      dup1\n      swap2\n      sub\n      swap1\n      revert\n    tag_35:\n        /* \"tasks/Task_09.sol\":1023:1028  false */\n      0x00\n        /* \"tasks/Task_09.sol\":1006:1011  users */\n      0x01\n        /* \"tasks/Task_09.sol\":1006:1020  users[_userId] */\n      0x00\n        /* \"tasks/Task_09.sol\":1012:1019  _userId */\n      dup4\n        /* \"tasks/Task_09.sol\":1006:1020  users[_userId] */\n      dup2\n      mstore\n      0x20\n      add\n      swap1\n      dup2\n      mstore\n      0x20\n      add\n      0x00\n      keccak256\n      0x00\n        /* \"tasks/Task_09.sol\":1006:1028  users[_userId] = false */\n      0x0100\n      exp\n      dup2\n      sload\n      dup2\n      0xff\n      mul\n      not\n      and\n      swap1\n      dup4\n      iszero\n      iszero\n      mul\n      or\n      swap1\n      sstore\n      pop\n        /* \"tasks/Task_09.sol\":1055:1062  _userId */\n      dup1\n        /* \"tasks/Task_09.sol\":1043:1088  UserRemoved(_userId, \"User has been removed\") */\n      0xf0d3ab3a46c77451865b0988d1c7d12d94cac2c11439e3f750047808cd0031d6\n      mload(0x40)\n      tag_38\n      swap1\n      tag_39\n      jump\t// in\n    tag_38:\n      mload(0x40)\n      dup1\n      swap2\n      sub\n      swap1\n      log2\n        /* \"tasks/Task_09.sol\":884:1095  function removeUser(uint256 _userId) external onlyOwner {... */\n      pop\n      jump\t// out\n        /* \"tasks/Task_09.sol\":534:571  mapping(uint256 => bool) public users */\n    tag_14:\n      mstore(0x20, 0x01)\n      dup1\n      0x00\n      mstore\n      keccak256(0x00, 0x40)\n      0x00\n      swap2\n      pop\n      sload\n      swap1\n      0x0100\n      exp\n      swap1\n      div\n      0xff\n      and\n      dup2\n      jump\t// out\n        /* \"tasks/Task_09.sol\":80:100  address public owner */\n    tag_18:\n      0x00\n      0x00\n      swap1\n      sload\n      swap1\n      0x0100\n      exp\n      swap1\n      div\n      0xffffffffffffffffffffffffffffffffffffffff\n      and\n      dup2\n      jump\t// out\n        /* \"tasks/Task_09.sol\":1439:1668  function getFixedByteArraySum(bytes1[4] memory _data) public pure returns (uint8) {... */\n    tag_24:\n        /* \"tasks/Task_09.sol\":1514:1519  uint8 */\n      0x00\n        /* \"tasks/Task_09.sol\":1531:1540  uint8 sum */\n      0x00\n        /* \"tasks/Task_09.sol\":1543:1544  0 */\n      0x00\n        /* \"tasks/Task_09.sol\":1531:1544  uint8 sum = 0 */\n      swap1\n      pop\n        /* \"tasks/Task_09.sol\":1559:1566  uint8 i */\n      0x00\n        /* \"tasks/Task_09.sol\":1569:1570  0 */\n      0x00\n        /* \"tasks/Task_09.sol\":1559:1570  uint8 i = 0 */\n      swap1\n      pop\n        /* \"tasks/Task_09.sol\":1554:1642  for (uint8 i = 0; i < _data.length; i++) {... */\n    tag_41:\n        /* \"tasks/Task_09.sol\":1576:1588  _data.length */\n      0x04\n        /* \"tasks/Task_09.sol\":1572:1573  i */\n      dup2\n        /* \"tasks/Task_09.sol\":1572:1588  i < _data.length */\n      0xff\n      and\n      lt\n        /* \"tasks/Task_09.sol\":1554:1642  for (uint8 i = 0; i < _data.length; i++) {... */\n      iszero\n      tag_42\n      jumpi\n        /* \"tasks/Task_09.sol\":1622:1627  _data */\n      dup4\n        /* \"tasks/Task_09.sol\":1628:1629  i */\n      dup2\n        /* \"tasks/Task_09.sol\":1622:1630  _data[i] */\n      0xff\n      and\n      0x04\n      dup2\n      lt\n      tag_44\n      jumpi\n      tag_45\n      tag_46\n      jump\t// in\n    tag_45:\n    tag_44:\n      0x20\n      mul\n      add\n      mload\n        /* \"tasks/Task_09.sol\":1616:1631  uint8(_data[i]) */\n      0xf8\n      shr\n        /* \"tasks/Task_09.sol\":1609:1631  sum += uint8(_data[i]) */\n      dup3\n      tag_47\n      swap2\n      swap1\n      tag_48\n      jump\t// in\n    tag_47:\n      swap2\n      pop\n        /* \"tasks/Task_09.sol\":1590:1593  i++ */\n      dup1\n      dup1\n      tag_49\n      swap1\n      tag_50\n      jump\t// in\n    tag_49:\n      swap2\n      pop\n      pop\n        /* \"tasks/Task_09.sol\":1554:1642  for (uint8 i = 0; i < _data.length; i++) {... */\n      jump(tag_41)\n    tag_42:\n      pop\n        /* \"tasks/Task_09.sol\":1658:1661  sum */\n      dup1\n        /* \"tasks/Task_09.sol\":1651:1661  return sum */\n      swap2\n      pop\n      pop\n        /* \"tasks/Task_09.sol\":1439:1668  function getFixedByteArraySum(bytes1[4] memory _data) public pure returns (uint8) {... */\n      swap2\n      swap1\n      pop\n      jump\t// out\n        /* \"tasks/Task_09.sol\":674:878  function addUser(uint256 _userId) external onlyOwner {... */\n    tag_29:\n        /* \"tasks/Task_09.sol\":631:636  owner */\n      0x00\n      0x00\n      swap1\n      sload\n      swap1\n      0x0100\n      exp\n      swap1\n      div\n      0xffffffffffffffffffffffffffffffffffffffff\n      and\n        /* \"tasks/Task_09.sol\":617:636  msg.sender == owner */\n      0xffffffffffffffffffffffffffffffffffffffff\n      and\n        /* \"tasks/Task_09.sol\":617:627  msg.sender */\n      caller\n        /* \"tasks/Task_09.sol\":617:636  msg.sender == owner */\n      0xffffffffffffffffffffffffffffffffffffffff\n      and\n      eq\n        /* \"tasks/Task_09.sol\":609:650  require(msg.sender == owner, \"Not owner\") */\n      tag_52\n      jumpi\n      mload(0x40)\n      0x08c379a000000000000000000000000000000000000000000000000000000000\n      dup2\n      mstore\n      0x04\n      add\n      tag_53\n      swap1\n      tag_33\n      jump\t// in\n    tag_53:\n      mload(0x40)\n      dup1\n      swap2\n      sub\n      swap1\n      revert\n    tag_52:\n        /* \"tasks/Task_09.sol\":746:751  users */\n      0x01\n        /* \"tasks/Task_09.sol\":746:760  users[_userId] */\n      0x00\n        /* \"tasks/Task_09.sol\":752:759  _userId */\n      dup3\n        /* \"tasks/Task_09.sol\":746:760  users[_userId] */\n      dup2\n      mstore\n      0x20\n      add\n      swap1\n      dup2\n      mstore\n      0x20\n      add\n      0x00\n      keccak256\n      0x00\n      swap1\n      sload\n      swap1\n      0x0100\n      exp\n      swap1\n      div\n      0xff\n      and\n        /* \"tasks/Task_09.sol\":745:760  !users[_userId] */\n      iszero\n        /* \"tasks/Task_09.sol\":737:784  require(!users[_userId], \"User already exists\") */\n      tag_55\n      jumpi\n      mload(0x40)\n      0x08c379a000000000000000000000000000000000000000000000000000000000\n      dup2\n      mstore\n      0x04\n      add\n      tag_56\n      swap1\n      tag_57\n      jump\t// in\n    tag_56:\n      mload(0x40)\n      dup1\n      swap2\n      sub\n      swap1\n      revert\n    tag_55:\n        /* \"tasks/Task_09.sol\":811:815  true */\n      0x01\n        /* \"tasks/Task_09.sol\":794:799  users */\n      dup1\n        /* \"tasks/Task_09.sol\":794:808  users[_userId] */\n      0x00\n        /* \"tasks/Task_09.sol\":800:807  _userId */\n      dup4\n        /* \"tasks/Task_09.sol\":794:808  users[_userId] */\n      dup2\n      mstore\n      0x20\n      add\n      swap1\n      dup2\n      mstore\n      0x20\n      add\n      0x00\n      keccak256\n      0x00\n        /* \"tasks/Task_09.sol\":794:815  users[_userId] = true */\n      0x0100\n      exp\n      dup2\n      sload\n      dup2\n      0xff\n      mul\n      not\n      and\n      swap1\n      dup4\n      iszero\n      iszero\n      mul\n      or\n      swap1\n      sstore\n      pop\n        /* \"tasks/Task_09.sol\":840:847  _userId */\n      dup1\n        /* \"tasks/Task_09.sol\":830:871  UserAdded(_userId, \"User has been added\") */\n      0x7383aa0b626a44cdb9c3eb86baced64553430dbca760cdc33d78288614586f3c\n      mload(0x40)\n      tag_58\n      swap1\n      tag_59\n      jump\t// in\n    tag_58:\n      mload(0x40)\n      dup1\n      swap2\n      sub\n      swap1\n      log2\n        /* \"tasks/Task_09.sol\":674:878  function addUser(uint256 _userId) external onlyOwner {... */\n      pop\n      jump\t// out\n        /* \"#utility.yul\":7:82   */\n    tag_60:\n        /* \"#utility.yul\":40:46   */\n      0x00\n        /* \"#utility.yul\":73:75   */\n      0x40\n        /* \"#utility.yul\":67:76   */\n      mload\n        /* \"#utility.yul\":57:76   */\n      swap1\n      pop\n        /* \"#utility.yul\":7:82   */\n      swap1\n      jump\t// out\n        /* \"#utility.yul\":88:205   */\n    tag_61:\n        /* \"#utility.yul\":197:198   */\n      0x00\n        /* \"#utility.yul\":194:195   */\n      0x00\n        /* \"#utility.yul\":187:199   */\n      revert\n        /* \"#utility.yul\":334:411   */\n    tag_63:\n        /* \"#utility.yul\":371:378   */\n      0x00\n        /* \"#utility.yul\":400:405   */\n      dup2\n        /* \"#utility.yul\":389:405   */\n      swap1\n      pop\n        /* \"#utility.yul\":334:411   */\n      swap2\n      swap1\n      pop\n      jump\t// out\n        /* \"#utility.yul\":417:539   */\n    tag_64:\n        /* \"#utility.yul\":490:514   */\n      tag_103\n        /* \"#utility.yul\":508:513   */\n      dup2\n        /* \"#utility.yul\":490:514   */\n      tag_63\n      jump\t// in\n    tag_103:\n        /* \"#utility.yul\":483:488   */\n      dup2\n        /* \"#utility.yul\":480:515   */\n      eq\n        /* \"#utility.yul\":470:533   */\n      tag_104\n      jumpi\n        /* \"#utility.yul\":529:530   */\n      0x00\n        /* \"#utility.yul\":526:527   */\n      0x00\n        /* \"#utility.yul\":519:531   */\n      revert\n        /* \"#utility.yul\":470:533   */\n    tag_104:\n        /* \"#utility.yul\":417:539   */\n      pop\n      jump\t// out\n        /* \"#utility.yul\":545:684   */\n    tag_65:\n        /* \"#utility.yul\":591:596   */\n      0x00\n        /* \"#utility.yul\":629:635   */\n      dup2\n        /* \"#utility.yul\":616:636   */\n      calldataload\n        /* \"#utility.yul\":607:636   */\n      swap1\n      pop\n        /* \"#utility.yul\":645:678   */\n      tag_106\n        /* \"#utility.yul\":672:677   */\n      dup2\n        /* \"#utility.yul\":645:678   */\n      tag_64\n      jump\t// in\n    tag_106:\n        /* \"#utility.yul\":545:684   */\n      swap3\n      swap2\n      pop\n      pop\n      jump\t// out\n        /* \"#utility.yul\":690:1019   */\n    tag_10:\n        /* \"#utility.yul\":749:755   */\n      0x00\n        /* \"#utility.yul\":798:800   */\n      0x20\n        /* \"#utility.yul\":786:795   */\n      dup3\n        /* \"#utility.yul\":777:784   */\n      dup5\n        /* \"#utility.yul\":773:796   */\n      sub\n        /* \"#utility.yul\":769:801   */\n      slt\n        /* \"#utility.yul\":766:885   */\n      iszero\n      tag_108\n      jumpi\n        /* \"#utility.yul\":804:883   */\n      tag_109\n      tag_61\n      jump\t// in\n    tag_109:\n        /* \"#utility.yul\":766:885   */\n    tag_108:\n        /* \"#utility.yul\":924:925   */\n      0x00\n        /* \"#utility.yul\":949:1002   */\n      tag_110\n        /* \"#utility.yul\":994:1001   */\n      dup5\n        /* \"#utility.yul\":985:991   */\n      dup3\n        /* \"#utility.yul\":974:983   */\n      dup6\n        /* \"#utility.yul\":970:992   */\n      add\n        /* \"#utility.yul\":949:1002   */\n      tag_65\n      jump\t// in\n    tag_110:\n        /* \"#utility.yul\":939:1002   */\n      swap2\n      pop\n        /* \"#utility.yul\":895:1012   */\n      pop\n        /* \"#utility.yul\":690:1019   */\n      swap3\n      swap2\n      pop\n      pop\n      jump\t// out\n        /* \"#utility.yul\":1025:1115   */\n    tag_66:\n        /* \"#utility.yul\":1059:1066   */\n      0x00\n        /* \"#utility.yul\":1102:1107   */\n      dup2\n        /* \"#utility.yul\":1095:1108   */\n      iszero\n        /* \"#utility.yul\":1088:1109   */\n      iszero\n        /* \"#utility.yul\":1077:1109   */\n      swap1\n      pop\n        /* \"#utility.yul\":1025:1115   */\n      swap2\n      swap1\n      pop\n      jump\t// out\n        /* \"#utility.yul\":1121:1230   */\n    tag_67:\n        /* \"#utility.yul\":1202:1223   */\n      tag_113\n        /* \"#utility.yul\":1217:1222   */\n      dup2\n        /* \"#utility.yul\":1202:1223   */\n      tag_66\n      jump\t// in\n    tag_113:\n        /* \"#utility.yul\":1197:1200   */\n      dup3\n        /* \"#utility.yul\":1190:1224   */\n      mstore\n        /* \"#utility.yul\":1121:1230   */\n      pop\n      pop\n      jump\t// out\n        /* \"#utility.yul\":1236:1446   */\n    tag_16:\n        /* \"#utility.yul\":1323:1327   */\n      0x00\n        /* \"#utility.yul\":1361:1363   */\n      0x20\n        /* \"#utility.yul\":1350:1359   */\n      dup3\n        /* \"#utility.yul\":1346:1364   */\n      add\n        /* \"#utility.yul\":1338:1364   */\n      swap1\n      pop\n        /* \"#utility.yul\":1374:1439   */\n      tag_115\n        /* \"#utility.yul\":1436:1437   */\n      0x00\n        /* \"#utility.yul\":1425:1434   */\n      dup4\n        /* \"#utility.yul\":1421:1438   */\n      add\n        /* \"#utility.yul\":1412:1418   */\n      dup5\n        /* \"#utility.yul\":1374:1439   */\n      tag_67\n      jump\t// in\n    tag_115:\n        /* \"#utility.yul\":1236:1446   */\n      swap3\n      swap2\n      pop\n      pop\n      jump\t// out\n        /* \"#utility.yul\":1452:1578   */\n    tag_68:\n        /* \"#utility.yul\":1489:1496   */\n      0x00\n        /* \"#utility.yul\":1529:1571   */\n      0xffffffffffffffffffffffffffffffffffffffff\n        /* \"#utility.yul\":1522:1527   */\n      dup3\n        /* \"#utility.yul\":1518:1572   */\n      and\n        /* \"#utility.yul\":1507:1572   */\n      swap1\n      pop\n        /* \"#utility.yul\":1452:1578   */\n      swap2\n      swap1\n      pop\n      jump\t// out\n        /* \"#utility.yul\":1584:1680   */\n    tag_69:\n        /* \"#utility.yul\":1621:1628   */\n      0x00\n        /* \"#utility.yul\":1650:1674   */\n      tag_118\n        /* \"#utility.yul\":1668:1673   */\n      dup3\n        /* \"#utility.yul\":1650:1674   */\n      tag_68\n      jump\t// in\n    tag_118:\n        /* \"#utility.yul\":1639:1674   */\n      swap1\n      pop\n        /* \"#utility.yul\":1584:1680   */\n      swap2\n      swap1\n      pop\n      jump\t// out\n        /* \"#utility.yul\":1686:1804   */\n    tag_70:\n        /* \"#utility.yul\":1773:1797   */\n      tag_120\n        /* \"#utility.yul\":1791:1796   */\n      dup2\n        /* \"#utility.yul\":1773:1797   */\n      tag_69\n      jump\t// in\n    tag_120:\n        /* \"#utility.yul\":1768:1771   */\n      dup3\n        /* \"#utility.yul\":1761:1798   */\n      mstore\n        /* \"#utility.yul\":1686:1804   */\n      pop\n      pop\n      jump\t// out\n        /* \"#utility.yul\":1810:2032   */\n    tag_20:\n        /* \"#utility.yul\":1903:1907   */\n      0x00\n        /* \"#utility.yul\":1941:1943   */\n      0x20\n        /* \"#utility.yul\":1930:1939   */\n      dup3\n        /* \"#utility.yul\":1926:1944   */\n      add\n        /* \"#utility.yul\":1918:1944   */\n      swap1\n      pop\n        /* \"#utility.yul\":1954:2025   */\n      tag_122\n        /* \"#utility.yul\":2022:2023   */\n      0x00\n        /* \"#utility.yul\":2011:2020   */\n      dup4\n        /* \"#utility.yul\":2007:2024   */\n      add\n        /* \"#utility.yul\":1998:2004   */\n      dup5\n        /* \"#utility.yul\":1954:2025   */\n      tag_70\n      jump\t// in\n    tag_122:\n        /* \"#utility.yul\":1810:2032   */\n      swap3\n      swap2\n      pop\n      pop\n      jump\t// out\n        /* \"#utility.yul\":2038:2155   */\n    tag_71:\n        /* \"#utility.yul\":2147:2148   */\n      0x00\n        /* \"#utility.yul\":2144:2145   */\n      0x00\n        /* \"#utility.yul\":2137:2149   */\n      revert\n        /* \"#utility.yul\":2161:2263   */\n    tag_72:\n        /* \"#utility.yul\":2202:2208   */\n      0x00\n        /* \"#utility.yul\":2253:2255   */\n      0x1f\n        /* \"#utility.yul\":2249:2256   */\n      not\n        /* \"#utility.yul\":2244:2246   */\n      0x1f\n        /* \"#utility.yul\":2237:2242   */\n      dup4\n        /* \"#utility.yul\":2233:2247   */\n      add\n        /* \"#utility.yul\":2229:2257   */\n      and\n        /* \"#utility.yul\":2219:2257   */\n      swap1\n      pop\n        /* \"#utility.yul\":2161:2263   */\n      swap2\n      swap1\n      pop\n      jump\t// out\n        /* \"#utility.yul\":2269:2449   */\n    tag_73:\n        /* \"#utility.yul\":2317:2394   */\n      0x4e487b7100000000000000000000000000000000000000000000000000000000\n        /* \"#utility.yul\":2314:2315   */\n      0x00\n        /* \"#utility.yul\":2307:2395   */\n      mstore\n        /* \"#utility.yul\":2414:2418   */\n      0x41\n        /* \"#utility.yul\":2411:2412   */\n      0x04\n        /* \"#utility.yul\":2404:2419   */\n      mstore\n        /* \"#utility.yul\":2438:2442   */\n      0x24\n        /* \"#utility.yul\":2435:2436   */\n      0x00\n        /* \"#utility.yul\":2428:2443   */\n      revert\n        /* \"#utility.yul\":2455:2736   */\n    tag_74:\n        /* \"#utility.yul\":2538:2565   */\n      tag_127\n        /* \"#utility.yul\":2560:2564   */\n      dup3\n        /* \"#utility.yul\":2538:2565   */\n      tag_72\n      jump\t// in\n    tag_127:\n        /* \"#utility.yul\":2530:2536   */\n      dup2\n        /* \"#utility.yul\":2526:2566   */\n      add\n        /* \"#utility.yul\":2668:2674   */\n      dup2\n        /* \"#utility.yul\":2656:2666   */\n      dup2\n        /* \"#utility.yul\":2653:2675   */\n      lt\n        /* \"#utility.yul\":2632:2650   */\n      0xffffffffffffffff\n        /* \"#utility.yul\":2620:2630   */\n      dup3\n        /* \"#utility.yul\":2617:2651   */\n      gt\n        /* \"#utility.yul\":2614:2676   */\n      or\n        /* \"#utility.yul\":2611:2699   */\n      iszero\n      tag_128\n      jumpi\n        /* \"#utility.yul\":2679:2697   */\n      tag_129\n      tag_73\n      jump\t// in\n    tag_129:\n        /* \"#utility.yul\":2611:2699   */\n    tag_128:\n        /* \"#utility.yul\":2719:2729   */\n      dup1\n        /* \"#utility.yul\":2715:2717   */\n      0x40\n        /* \"#utility.yul\":2708:2730   */\n      mstore\n        /* \"#utility.yul\":2498:2736   */\n      pop\n        /* \"#utility.yul\":2455:2736   */\n      pop\n      pop\n      jump\t// out\n        /* \"#utility.yul\":2742:2871   */\n    tag_75:\n        /* \"#utility.yul\":2776:2782   */\n      0x00\n        /* \"#utility.yul\":2803:2823   */\n      tag_131\n      tag_60\n      jump\t// in\n    tag_131:\n        /* \"#utility.yul\":2793:2823   */\n      swap1\n      pop\n        /* \"#utility.yul\":2832:2865   */\n      tag_132\n        /* \"#utility.yul\":2860:2864   */\n      dup3\n        /* \"#utility.yul\":2852:2858   */\n      dup3\n        /* \"#utility.yul\":2832:2865   */\n      tag_74\n      jump\t// in\n    tag_132:\n        /* \"#utility.yul\":2742:2871   */\n      swap2\n      swap1\n      pop\n      jump\t// out\n        /* \"#utility.yul\":2877:3125   */\n    tag_76:\n        /* \"#utility.yul\":2951:2955   */\n      0x00\n        /* \"#utility.yul\":3041:3059   */\n      0xffffffffffffffff\n        /* \"#utility.yul\":3033:3039   */\n      dup3\n        /* \"#utility.yul\":3030:3060   */\n      gt\n        /* \"#utility.yul\":3027:3083   */\n      iszero\n      tag_134\n      jumpi\n        /* \"#utility.yul\":3063:3081   */\n      tag_135\n      tag_73\n      jump\t// in\n    tag_135:\n        /* \"#utility.yul\":3027:3083   */\n    tag_134:\n        /* \"#utility.yul\":3113:3117   */\n      0x20\n        /* \"#utility.yul\":3105:3111   */\n      dup3\n        /* \"#utility.yul\":3101:3118   */\n      mul\n        /* \"#utility.yul\":3093:3118   */\n      swap1\n      pop\n        /* \"#utility.yul\":2877:3125   */\n      swap2\n      swap1\n      pop\n      jump\t// out\n        /* \"#utility.yul\":3131:3248   */\n    tag_77:\n        /* \"#utility.yul\":3240:3241   */\n      0x00\n        /* \"#utility.yul\":3237:3238   */\n      0x00\n        /* \"#utility.yul\":3230:3242   */\n      revert\n        /* \"#utility.yul\":3254:3403   */\n    tag_78:\n        /* \"#utility.yul\":3290:3297   */\n      0x00\n        /* \"#utility.yul\":3330:3396   */\n      0xff00000000000000000000000000000000000000000000000000000000000000\n        /* \"#utility.yul\":3323:3328   */\n      dup3\n        /* \"#utility.yul\":3319:3397   */\n      and\n        /* \"#utility.yul\":3308:3397   */\n      swap1\n      pop\n        /* \"#utility.yul\":3254:3403   */\n      swap2\n      swap1\n      pop\n      jump\t// out\n        /* \"#utility.yul\":3409:3529   */\n    tag_79:\n        /* \"#utility.yul\":3481:3504   */\n      tag_139\n        /* \"#utility.yul\":3498:3503   */\n      dup2\n        /* \"#utility.yul\":3481:3504   */\n      tag_78\n      jump\t// in\n    tag_139:\n        /* \"#utility.yul\":3474:3479   */\n      dup2\n        /* \"#utility.yul\":3471:3505   */\n      eq\n        /* \"#utility.yul\":3461:3523   */\n      tag_140\n      jumpi\n        /* \"#utility.yul\":3519:3520   */\n      0x00\n        /* \"#utility.yul\":3516:3517   */\n      0x00\n        /* \"#utility.yul\":3509:3521   */\n      revert\n        /* \"#utility.yul\":3461:3523   */\n    tag_140:\n        /* \"#utility.yul\":3409:3529   */\n      pop\n      jump\t// out\n        /* \"#utility.yul\":3535:3672   */\n    tag_80:\n        /* \"#utility.yul\":3580:3585   */\n      0x00\n        /* \"#utility.yul\":3618:3624   */\n      dup2\n        /* \"#utility.yul\":3605:3625   */\n      calldataload\n        /* \"#utility.yul\":3596:3625   */\n      swap1\n      pop\n        /* \"#utility.yul\":3634:3666   */\n      tag_142\n        /* \"#utility.yul\":3660:3665   */\n      dup2\n        /* \"#utility.yul\":3634:3666   */\n      tag_79\n      jump\t// in\n    tag_142:\n        /* \"#utility.yul\":3535:3672   */\n      swap3\n      swap2\n      pop\n      pop\n      jump\t// out\n        /* \"#utility.yul\":3695:4335   */\n    tag_81:\n        /* \"#utility.yul\":3788:3793   */\n      0x00\n        /* \"#utility.yul\":3813:3891   */\n      tag_144\n        /* \"#utility.yul\":3829:3890   */\n      tag_145\n        /* \"#utility.yul\":3883:3889   */\n      dup5\n        /* \"#utility.yul\":3829:3890   */\n      tag_76\n      jump\t// in\n    tag_145:\n        /* \"#utility.yul\":3813:3891   */\n      tag_75\n      jump\t// in\n    tag_144:\n        /* \"#utility.yul\":3804:3891   */\n      swap1\n      pop\n        /* \"#utility.yul\":3911:3916   */\n      dup1\n        /* \"#utility.yul\":3964:3968   */\n      0x20\n        /* \"#utility.yul\":3956:3962   */\n      dup5\n        /* \"#utility.yul\":3952:3969   */\n      mul\n        /* \"#utility.yul\":3944:3950   */\n      dup4\n        /* \"#utility.yul\":3940:3970   */\n      add\n        /* \"#utility.yul\":3993:3996   */\n      dup6\n        /* \"#utility.yul\":3985:3991   */\n      dup2\n        /* \"#utility.yul\":3982:3997   */\n      gt\n        /* \"#utility.yul\":3979:4101   */\n      iszero\n      tag_146\n      jumpi\n        /* \"#utility.yul\":4012:4091   */\n      tag_147\n      tag_77\n      jump\t// in\n    tag_147:\n        /* \"#utility.yul\":3979:4101   */\n    tag_146:\n        /* \"#utility.yul\":4127:4133   */\n      dup4\n        /* \"#utility.yul\":4110:4329   */\n    tag_148:\n        /* \"#utility.yul\":4144:4150   */\n      dup2\n        /* \"#utility.yul\":4139:4142   */\n      dup2\n        /* \"#utility.yul\":4136:4151   */\n      lt\n        /* \"#utility.yul\":4110:4329   */\n      iszero\n      tag_150\n      jumpi\n        /* \"#utility.yul\":4219:4222   */\n      dup1\n        /* \"#utility.yul\":4248:4284   */\n      tag_151\n        /* \"#utility.yul\":4280:4283   */\n      dup9\n        /* \"#utility.yul\":4268:4278   */\n      dup3\n        /* \"#utility.yul\":4248:4284   */\n      tag_80\n      jump\t// in\n    tag_151:\n        /* \"#utility.yul\":4243:4246   */\n      dup5\n        /* \"#utility.yul\":4236:4285   */\n      mstore\n        /* \"#utility.yul\":4314:4318   */\n      0x20\n        /* \"#utility.yul\":4309:4312   */\n      dup5\n        /* \"#utility.yul\":4305:4319   */\n      add\n        /* \"#utility.yul\":4298:4319   */\n      swap4\n      pop\n        /* \"#utility.yul\":4186:4329   */\n      pop\n        /* \"#utility.yul\":4170:4174   */\n      0x20\n        /* \"#utility.yul\":4165:4168   */\n      dup2\n        /* \"#utility.yul\":4161:4175   */\n      add\n        /* \"#utility.yul\":4154:4175   */\n      swap1\n      pop\n        /* \"#utility.yul\":4110:4329   */\n      jump(tag_148)\n    tag_150:\n        /* \"#utility.yul\":4114:4135   */\n      pop\n        /* \"#utility.yul\":3794:4335   */\n      pop\n      pop\n        /* \"#utility.yul\":3695:4335   */\n      swap4\n      swap3\n      pop\n      pop\n      pop\n      jump\t// out\n        /* \"#utility.yul\":4358:4695   */\n    tag_82:\n        /* \"#utility.yul\":4426:4431   */\n      0x00\n        /* \"#utility.yul\":4475:4478   */\n      dup3\n        /* \"#utility.yul\":4468:4472   */\n      0x1f\n        /* \"#utility.yul\":4460:4466   */\n      dup4\n        /* \"#utility.yul\":4456:4473   */\n      add\n        /* \"#utility.yul\":4452:4479   */\n      slt\n        /* \"#utility.yul\":4442:4564   */\n      tag_153\n      jumpi\n        /* \"#utility.yul\":4483:4562   */\n      tag_154\n      tag_71\n      jump\t// in\n    tag_154:\n        /* \"#utility.yul\":4442:4564   */\n    tag_153:\n        /* \"#utility.yul\":4587:4591   */\n      0x04\n        /* \"#utility.yul\":4609:4689   */\n      tag_155\n        /* \"#utility.yul\":4685:4688   */\n      dup5\n        /* \"#utility.yul\":4677:4683   */\n      dup3\n        /* \"#utility.yul\":4669:4675   */\n      dup6\n        /* \"#utility.yul\":4609:4689   */\n      tag_81\n      jump\t// in\n    tag_155:\n        /* \"#utility.yul\":4600:4689   */\n      swap2\n      pop\n        /* \"#utility.yul\":4432:4695   */\n      pop\n        /* \"#utility.yul\":4358:4695   */\n      swap3\n      swap2\n      pop\n      pop\n      jump\t// out\n        /* \"#utility.yul\":4701:5075   */\n    tag_23:\n        /* \"#utility.yul\":4782:4788   */\n      0x00\n        /* \"#utility.yul\":4831:4834   */\n      0x80\n        /* \"#utility.yul\":4819:4828   */\n      dup3\n        /* \"#utility.yul\":4810:4817   */\n      dup5\n        /* \"#utility.yul\":4806:4829   */\n      sub\n        /* \"#utility.yul\":4802:4835   */\n      slt\n        /* \"#utility.yul\":4799:4919   */\n      iszero\n      tag_157\n      jumpi\n        /* \"#utility.yul\":4838:4917   */\n      tag_158\n      tag_61\n      jump\t// in\n    tag_158:\n        /* \"#utility.yul\":4799:4919   */\n    tag_157:\n        /* \"#utility.yul\":4958:4959   */\n      0x00\n        /* \"#utility.yul\":4983:5058   */\n      tag_159\n        /* \"#utility.yul\":5050:5057   */\n      dup5\n        /* \"#utility.yul\":5041:5047   */\n      dup3\n        /* \"#utility.yul\":5030:5039   */\n      dup6\n        /* \"#utility.yul\":5026:5048   */\n      add\n        /* \"#utility.yul\":4983:5058   */\n      tag_82\n      jump\t// in\n    tag_159:\n        /* \"#utility.yul\":4973:5058   */\n      swap2\n      pop\n        /* \"#utility.yul\":4929:5068   */\n      pop\n        /* \"#utility.yul\":4701:5075   */\n      swap3\n      swap2\n      pop\n      pop\n      jump\t// out\n        /* \"#utility.yul\":5081:5167   */\n    tag_83:\n        /* \"#utility.yul\":5116:5123   */\n      0x00\n        /* \"#utility.yul\":5156:5160   */\n      0xff\n        /* \"#utility.yul\":5149:5154   */\n      dup3\n        /* \"#utility.yul\":5145:5161   */\n      and\n        /* \"#utility.yul\":5134:5161   */\n      swap1\n      pop\n        /* \"#utility.yul\":5081:5167   */\n      swap2\n      swap1\n      pop\n      jump\t// out\n        /* \"#utility.yul\":5173:5285   */\n    tag_84:\n        /* \"#utility.yul\":5256:5278   */\n      tag_162\n        /* \"#utility.yul\":5272:5277   */\n      dup2\n        /* \"#utility.yul\":5256:5278   */\n      tag_83\n      jump\t// in\n    tag_162:\n        /* \"#utility.yul\":5251:5254   */\n      dup3\n        /* \"#utility.yul\":5244:5279   */\n      mstore\n        /* \"#utility.yul\":5173:5285   */\n      pop\n      pop\n      jump\t// out\n        /* \"#utility.yul\":5291:5505   */\n    tag_26:\n        /* \"#utility.yul\":5380:5384   */\n      0x00\n        /* \"#utility.yul\":5418:5420   */\n      0x20\n        /* \"#utility.yul\":5407:5416   */\n      dup3\n        /* \"#utility.yul\":5403:5421   */\n      add\n        /* \"#utility.yul\":5395:5421   */\n      swap1\n      pop\n        /* \"#utility.yul\":5431:5498   */\n      tag_164\n        /* \"#utility.yul\":5495:5496   */\n      0x00\n        /* \"#utility.yul\":5484:5493   */\n      dup4\n        /* \"#utility.yul\":5480:5497   */\n      add\n        /* \"#utility.yul\":5471:5477   */\n      dup5\n        /* \"#utility.yul\":5431:5498   */\n      tag_84\n      jump\t// in\n    tag_164:\n        /* \"#utility.yul\":5291:5505   */\n      swap3\n      swap2\n      pop\n      pop\n      jump\t// out\n        /* \"#utility.yul\":5511:5680   */\n    tag_85:\n        /* \"#utility.yul\":5595:5606   */\n      0x00\n        /* \"#utility.yul\":5629:5635   */\n      dup3\n        /* \"#utility.yul\":5624:5627   */\n      dup3\n        /* \"#utility.yul\":5617:5636   */\n      mstore\n        /* \"#utility.yul\":5669:5673   */\n      0x20\n        /* \"#utility.yul\":5664:5667   */\n      dup3\n        /* \"#utility.yul\":5660:5674   */\n      add\n        /* \"#utility.yul\":5645:5674   */\n      swap1\n      pop\n        /* \"#utility.yul\":5511:5680   */\n      swap3\n      swap2\n      pop\n      pop\n      jump\t// out\n        /* \"#utility.yul\":5686:5845   */\n    tag_86:\n        /* \"#utility.yul\":5826:5837   */\n      0x4e6f74206f776e65720000000000000000000000000000000000000000000000\n        /* \"#utility.yul\":5822:5823   */\n      0x00\n        /* \"#utility.yul\":5814:5820   */\n      dup3\n        /* \"#utility.yul\":5810:5824   */\n      add\n        /* \"#utility.yul\":5803:5838   */\n      mstore\n        /* \"#utility.yul\":5686:5845   */\n      pop\n      jump\t// out\n        /* \"#utility.yul\":5851:6216   */\n    tag_87:\n        /* \"#utility.yul\":5993:5996   */\n      0x00\n        /* \"#utility.yul\":6014:6080   */\n      tag_168\n        /* \"#utility.yul\":6078:6079   */\n      0x09\n        /* \"#utility.yul\":6073:6076   */\n      dup4\n        /* \"#utility.yul\":6014:6080   */\n      tag_85\n      jump\t// in\n    tag_168:\n        /* \"#utility.yul\":6007:6080   */\n      swap2\n      pop\n        /* \"#utility.yul\":6089:6182   */\n      tag_169\n        /* \"#utility.yul\":6178:6181   */\n      dup3\n        /* \"#utility.yul\":6089:6182   */\n      tag_86\n      jump\t// in\n    tag_169:\n        /* \"#utility.yul\":6207:6209   */\n      0x20\n        /* \"#utility.yul\":6202:6205   */\n      dup3\n        /* \"#utility.yul\":6198:6210   */\n      add\n        /* \"#utility.yul\":6191:6210   */\n      swap1\n      pop\n        /* \"#utility.yul\":5851:6216   */\n      swap2\n      swap1\n      pop\n      jump\t// out\n        /* \"#utility.yul\":6222:6641   */\n    tag_33:\n        /* \"#utility.yul\":6388:6392   */\n      0x00\n        /* \"#utility.yul\":6426:6428   */\n      0x20\n        /* \"#utility.yul\":6415:6424   */\n      dup3\n        /* \"#utility.yul\":6411:6429   */\n      add\n        /* \"#utility.yul\":6403:6429   */\n      swap1\n      pop\n        /* \"#utility.yul\":6475:6484   */\n      dup2\n        /* \"#utility.yul\":6469:6473   */\n      dup2\n        /* \"#utility.yul\":6465:6485   */\n      sub\n        /* \"#utility.yul\":6461:6462   */\n      0x00\n        /* \"#utility.yul\":6450:6459   */\n      dup4\n        /* \"#utility.yul\":6446:6463   */\n      add\n        /* \"#utility.yul\":6439:6486   */\n      mstore\n        /* \"#utility.yul\":6503:6634   */\n      tag_171\n        /* \"#utility.yul\":6629:6633   */\n      dup2\n        /* \"#utility.yul\":6503:6634   */\n      tag_87\n      jump\t// in\n    tag_171:\n        /* \"#utility.yul\":6495:6634   */\n      swap1\n      pop\n        /* \"#utility.yul\":6222:6641   */\n      swap2\n      swap1\n      pop\n      jump\t// out\n        /* \"#utility.yul\":6647:6816   */\n    tag_88:\n        /* \"#utility.yul\":6787:6808   */\n      0x5573657220646f6573206e6f7420657869737400000000000000000000000000\n        /* \"#utility.yul\":6783:6784   */\n      0x00\n        /* \"#utility.yul\":6775:6781   */\n      dup3\n        /* \"#utility.yul\":6771:6785   */\n      add\n        /* \"#utility.yul\":6764:6809   */\n      mstore\n        /* \"#utility.yul\":6647:6816   */\n      pop\n      jump\t// out\n        /* \"#utility.yul\":6822:7188   */\n    tag_89:\n        /* \"#utility.yul\":6964:6967   */\n      0x00\n        /* \"#utility.yul\":6985:7052   */\n      tag_174\n        /* \"#utility.yul\":7049:7051   */\n      0x13\n        /* \"#utility.yul\":7044:7047   */\n      dup4\n        /* \"#utility.yul\":6985:7052   */\n      tag_85\n      jump\t// in\n    tag_174:\n        /* \"#utility.yul\":6978:7052   */\n      swap2\n      pop\n        /* \"#utility.yul\":7061:7154   */\n      tag_175\n        /* \"#utility.yul\":7150:7153   */\n      dup3\n        /* \"#utility.yul\":7061:7154   */\n      tag_88\n      jump\t// in\n    tag_175:\n        /* \"#utility.yul\":7179:7181   */\n      0x20\n        /* \"#utility.yul\":7174:7177   */\n      dup3\n        /* \"#utility.yul\":7170:7182   */\n      add\n        /* \"#utility.yul\":7163:7182   */\n      swap1\n      pop\n        /* \"#utility.yul\":6822:7188   */\n      swap2\n      swap1\n      pop\n      jump\t// out\n        /* \"#utility.yul\":7194:7613   */\n    tag_37:\n        /* \"#utility.yul\":7360:7364   */\n      0x00\n        /* \"#utility.yul\":7398:7400   */\n      0x20\n        /* \"#utility.yul\":7387:7396   */\n      dup3\n        /* \"#utility.yul\":7383:7401   */\n      add\n        /* \"#utility.yul\":7375:7401   */\n      swap1\n      pop\n        /* \"#utility.yul\":7447:7456   */\n      dup2\n        /* \"#utility.yul\":7441:7445   */\n      dup2\n        /* \"#utility.yul\":7437:7457   */\n      sub\n        /* \"#utility.yul\":7433:7434   */\n      0x00\n        /* \"#utility.yul\":7422:7431   */\n      dup4\n        /* \"#utility.yul\":7418:7435   */\n      add\n        /* \"#utility.yul\":7411:7458   */\n      mstore\n        /* \"#utility.yul\":7475:7606   */\n      tag_177\n        /* \"#utility.yul\":7601:7605   */\n      dup2\n        /* \"#utility.yul\":7475:7606   */\n      tag_89\n      jump\t// in\n    tag_177:\n        /* \"#utility.yul\":7467:7606   */\n      swap1\n      pop\n        /* \"#utility.yul\":7194:7613   */\n      swap2\n      swap1\n      pop\n      jump\t// out\n        /* \"#utility.yul\":7619:7790   */\n    tag_90:\n        /* \"#utility.yul\":7759:7782   */\n      0x5573657220686173206265656e2072656d6f7665640000000000000000000000\n        /* \"#utility.yul\":7755:7756   */\n      0x00\n        /* \"#utility.yul\":7747:7753   */\n      dup3\n        /* \"#utility.yul\":7743:7757   */\n      add\n        /* \"#utility.yul\":7736:7783   */\n      mstore\n        /* \"#utility.yul\":7619:7790   */\n      pop\n      jump\t// out\n        /* \"#utility.yul\":7796:8162   */\n    tag_91:\n        /* \"#utility.yul\":7938:7941   */\n      0x00\n        /* \"#utility.yul\":7959:8026   */\n      tag_180\n        /* \"#utility.yul\":8023:8025   */\n      0x15\n        /* \"#utility.yul\":8018:8021   */\n      dup4\n        /* \"#utility.yul\":7959:8026   */\n      tag_85\n      jump\t// in\n    tag_180:\n        /* \"#utility.yul\":7952:8026   */\n      swap2\n      pop\n        /* \"#utility.yul\":8035:8128   */\n      tag_181\n        /* \"#utility.yul\":8124:8127   */\n      dup3\n        /* \"#utility.yul\":8035:8128   */\n      tag_90\n      jump\t// in\n    tag_181:\n        /* \"#utility.yul\":8153:8155   */\n      0x20\n        /* \"#utility.yul\":8148:8151   */\n      dup3\n        /* \"#utility.yul\":8144:8156   */\n      add\n        /* \"#utility.yul\":8137:8156   */\n      swap1\n      pop\n        /* \"#utility.yul\":7796:8162   */\n      swap2\n      swap1\n      pop\n      jump\t// out\n        /* \"#utility.yul\":8168:8587   */\n    tag_39:\n        /* \"#utility.yul\":8334:8338   */\n      0x00\n        /* \"#utility.yul\":8372:8374   */\n      0x20\n        /* \"#utility.yul\":8361:8370   */\n      dup3\n        /* \"#utility.yul\":8357:8375   */\n      add\n        /* \"#utility.yul\":8349:8375   */\n      swap1\n      pop\n        /* \"#utility.yul\":8421:8430   */\n      dup2\n        /* \"#utility.yul\":8415:8419   */\n      dup2\n        /* \"#utility.yul\":8411:8431   */\n      sub\n        /* \"#utility.yul\":8407:8408   */\n      0x00\n        /* \"#utility.yul\":8396:8405   */\n      dup4\n        /* \"#utility.yul\":8392:8409   */\n      add\n        /* \"#utility.yul\":8385:8432   */\n      mstore\n        /* \"#utility.yul\":8449:8580   */\n      tag_183\n        /* \"#utility.yul\":8575:8579   */\n      dup2\n        /* \"#utility.yul\":8449:8580   */\n      tag_91\n      jump\t// in\n    tag_183:\n        /* \"#utility.yul\":8441:8580   */\n      swap1\n      pop\n        /* \"#utility.yul\":8168:8587   */\n      swap2\n      swap1\n      pop\n      jump\t// out\n        /* \"#utility.yul\":8593:8773   */\n    tag_46:\n        /* \"#utility.yul\":8641:8718   */\n      0x4e487b7100000000000000000000000000000000000000000000000000000000\n        /* \"#utility.yul\":8638:8639   */\n      0x00\n        /* \"#utility.yul\":8631:8719   */\n      mstore\n        /* \"#utility.yul\":8738:8742   */\n      0x32\n        /* \"#utility.yul\":8735:8736   */\n      0x04\n        /* \"#utility.yul\":8728:8743   */\n      mstore\n        /* \"#utility.yul\":8762:8766   */\n      0x24\n        /* \"#utility.yul\":8759:8760   */\n      0x00\n        /* \"#utility.yul\":8752:8767   */\n      revert\n        /* \"#utility.yul\":8779:8959   */\n    tag_92:\n        /* \"#utility.yul\":8827:8904   */\n      0x4e487b7100000000000000000000000000000000000000000000000000000000\n        /* \"#utility.yul\":8824:8825   */\n      0x00\n        /* \"#utility.yul\":8817:8905   */\n      mstore\n        /* \"#utility.yul\":8924:8928   */\n      0x11\n        /* \"#utility.yul\":8921:8922   */\n      0x04\n        /* \"#utility.yul\":8914:8929   */\n      mstore\n        /* \"#utility.yul\":8948:8952   */\n      0x24\n        /* \"#utility.yul\":8945:8946   */\n      0x00\n        /* \"#utility.yul\":8938:8953   */\n      revert\n        /* \"#utility.yul\":8965:9153   */\n    tag_48:\n        /* \"#utility.yul\":9003:9006   */\n      0x00\n        /* \"#utility.yul\":9022:9040   */\n      tag_187\n        /* \"#utility.yul\":9038:9039   */\n      dup3\n        /* \"#utility.yul\":9022:9040   */\n      tag_83\n      jump\t// in\n    tag_187:\n        /* \"#utility.yul\":9017:9040   */\n      swap2\n      pop\n        /* \"#utility.yul\":9054:9072   */\n      tag_188\n        /* \"#utility.yul\":9070:9071   */\n      dup4\n        /* \"#utility.yul\":9054:9072   */\n      tag_83\n      jump\t// in\n    tag_188:\n        /* \"#utility.yul\":9049:9072   */\n      swap3\n      pop\n        /* \"#utility.yul\":9095:9096   */\n      dup3\n        /* \"#utility.yul\":9092:9093   */\n      dup3\n        /* \"#utility.yul\":9088:9097   */\n      add\n        /* \"#utility.yul\":9081:9097   */\n      swap1\n      pop\n        /* \"#utility.yul\":9118:9122   */\n      0xff\n        /* \"#utility.yul\":9113:9116   */\n      dup2\n        /* \"#utility.yul\":9110:9123   */\n      gt\n        /* \"#utility.yul\":9107:9146   */\n      iszero\n      tag_189\n      jumpi\n        /* \"#utility.yul\":9126:9144   */\n      tag_190\n      tag_92\n      jump\t// in\n    tag_190:\n        /* \"#utility.yul\":9107:9146   */\n    tag_189:\n        /* \"#utility.yul\":8965:9153   */\n      swap3\n      swap2\n      pop\n      pop\n      jump\t// out\n        /* \"#utility.yul\":9159:9326   */\n    tag_50:\n        /* \"#utility.yul\":9196:9199   */\n      0x00\n        /* \"#utility.yul\":9219:9241   */\n      tag_192\n        /* \"#utility.yul\":9235:9240   */\n      dup3\n        /* \"#utility.yul\":9219:9241   */\n      tag_83\n      jump\t// in\n    tag_192:\n        /* \"#utility.yul\":9210:9241   */\n      swap2\n      pop\n        /* \"#utility.yul\":9263:9267   */\n      0xff\n        /* \"#utility.yul\":9256:9261   */\n      dup3\n        /* \"#utility.yul\":9253:9268   */\n      sub\n        /* \"#utility.yul\":9250:9291   */\n      tag_193\n      jumpi\n        /* \"#utility.yul\":9271:9289   */\n      tag_194\n      tag_92\n      jump\t// in\n    tag_194:\n        /* \"#utility.yul\":9250:9291   */\n    tag_193:\n        /* \"#utility.yul\":9318:9319   */\n      0x01\n        /* \"#utility.yul\":9311:9316   */\n      dup3\n        /* \"#utility.yul\":9307:9320   */\n      add\n        /* \"#utility.yul\":9300:9320   */\n      swap1\n      pop\n        /* \"#utility.yul\":9159:9326   */\n      swap2\n      swap1\n      pop\n      jump\t// out\n        /* \"#utility.yul\":9332:9501   */\n    tag_93:\n        /* \"#utility.yul\":9472:9493   */\n      0x5573657220616c72656164792065786973747300000000000000000000000000\n        /* \"#utility.yul\":9468:9469   */\n      0x00\n        /* \"#utility.yul\":9460:9466   */\n      dup3\n        /* \"#utility.yul\":9456:9470   */\n      add\n        /* \"#utility.yul\":9449:9494   */\n      mstore\n        /* \"#utility.yul\":9332:9501   */\n      pop\n      jump\t// out\n        /* \"#utility.yul\":9507:9873   */\n    tag_94:\n        /* \"#utility.yul\":9649:9652   */\n      0x00\n        /* \"#utility.yul\":9670:9737   */\n      tag_197\n        /* \"#utility.yul\":9734:9736   */\n      0x13\n        /* \"#utility.yul\":9729:9732   */\n      dup4\n        /* \"#utility.yul\":9670:9737   */\n      tag_85\n      jump\t// in\n    tag_197:\n        /* \"#utility.yul\":9663:9737   */\n      swap2\n      pop\n        /* \"#utility.yul\":9746:9839   */\n      tag_198\n        /* \"#utility.yul\":9835:9838   */\n      dup3\n        /* \"#utility.yul\":9746:9839   */\n      tag_93\n      jump\t// in\n    tag_198:\n        /* \"#utility.yul\":9864:9866   */\n      0x20\n        /* \"#utility.yul\":9859:9862   */\n      dup3\n        /* \"#utility.yul\":9855:9867   */\n      add\n        /* \"#utility.yul\":9848:9867   */\n      swap1\n      pop\n        /* \"#utility.yul\":9507:9873   */\n      swap2\n      swap1\n      pop\n      jump\t// out\n        /* \"#utility.yul\":9879:10298   */\n    tag_57:\n        /* \"#utility.yul\":10045:10049   */\n      0x00\n        /* \"#utility.yul\":10083:10085   */\n      0x20\n        /* \"#utility.yul\":10072:10081   */\n      dup3\n        /* \"#utility.yul\":10068:10086   */\n      add\n        /* \"#utility.yul\":10060:10086   */\n      swap1\n      pop\n        /* \"#utility.yul\":10132:10141   */\n      dup2\n        /* \"#utility.yul\":10126:10130   */\n      dup2\n        /* \"#utility.yul\":10122:10142   */\n      sub\n        /* \"#utility.yul\":10118:10119   */\n      0x00\n        /* \"#utility.yul\":10107:10116   */\n      dup4\n        /* \"#utility.yul\":10103:10120   */\n      add\n        /* \"#utility.yul\":10096:10143   */\n      mstore\n        /* \"#utility.yul\":10160:10291   */\n      tag_200\n        /* \"#utility.yul\":10286:10290   */\n      dup2\n        /* \"#utility.yul\":10160:10291   */\n      tag_94\n      jump\t// in\n    tag_200:\n        /* \"#utility.yul\":10152:10291   */\n      swap1\n      pop\n        /* \"#utility.yul\":9879:10298   */\n      swap2\n      swap1\n      pop\n      jump\t// out\n        /* \"#utility.yul\":10304:10473   */\n    tag_95:\n        /* \"#utility.yul\":10444:10465   */\n      0x5573657220686173206265656e20616464656400000000000000000000000000\n        /* \"#utility.yul\":10440:10441   */\n      0x00\n        /* \"#utility.yul\":10432:10438   */\n      dup3\n        /* \"#utility.yul\":10428:10442   */\n      add\n        /* \"#utility.yul\":10421:10466   */\n      mstore\n        /* \"#utility.yul\":10304:10473   */\n      pop\n      jump\t// out\n        /* \"#utility.yul\":10479:10845   */\n    tag_96:\n        /* \"#utility.yul\":10621:10624   */\n      0x00\n        /* \"#utility.yul\":10642:10709   */\n      tag_203\n        /* \"#utility.yul\":10706:10708   */\n      0x13\n        /* \"#utility.yul\":10701:10704   */\n      dup4\n        /* \"#utility.yul\":10642:10709   */\n      tag_85\n      jump\t// in\n    tag_203:\n        /* \"#utility.yul\":10635:10709   */\n      swap2\n      pop\n        /* \"#utility.yul\":10718:10811   */\n      tag_204\n        /* \"#utility.yul\":10807:10810   */\n      dup3\n        /* \"#utility.yul\":10718:10811   */\n      tag_95\n      jump\t// in\n    tag_204:\n        /* \"#utility.yul\":10836:10838   */\n      0x20\n        /* \"#utility.yul\":10831:10834   */\n      dup3\n        /* \"#utility.yul\":10827:10839   */\n      add\n        /* \"#utility.yul\":10820:10839   */\n      swap1\n      pop\n        /* \"#utility.yul\":10479:10845   */\n      swap2\n      swap1\n      pop\n      jump\t// out\n        /* \"#utility.yul\":10851:11270   */\n    tag_59:\n        /* \"#utility.yul\":11017:11021   */\n      0x00\n        /* \"#utility.yul\":11055:11057   */\n      0x20\n        /* \"#utility.yul\":11044:11053   */\n      dup3\n        /* \"#utility.yul\":11040:11058   */\n      add\n        /* \"#utility.yul\":11032:11058   */\n      swap1\n      pop\n        /* \"#utility.yul\":11104:11113   */\n      dup2\n        /* \"#utility.yul\":11098:11102   */\n      dup2\n        /* \"#utility.yul\":11094:11114   */\n      sub\n        /* \"#utility.yul\":11090:11091   */\n      0x00\n        /* \"#utility.yul\":11079:11088   */\n      dup4\n        /* \"#utility.yul\":11075:11092   */\n      add\n        /* \"#utility.yul\":11068:11115   */\n      mstore\n        /* \"#utility.yul\":11132:11263   */\n      tag_206\n        /* \"#utility.yul\":11258:11262   */\n      dup2\n        /* \"#utility.yul\":11132:11263   */\n      tag_96\n      jump\t// in\n    tag_206:\n        /* \"#utility.yul\":11124:11263   */\n      swap1\n      pop\n        /* \"#utility.yul\":10851:11270   */\n      swap2\n      swap1\n      pop\n      jump\t// out\n\n    auxdata: 0xa2646970667358221220a118fae6905ab5965ec7a19b8b53f76376155d6dc9190ad6bf6f42d734f0582e64736f6c634300081e0033\n}\n",
				"bytecode": {
					"linkReferences": {},
					"object": "6080604052348015600e575f5ffd5b50335f5f6101000a81548173ffffffffffffffffffffffffffffffffffffffff021916908373ffffffffffffffffffffffffffffffffffffffff160217905550610a338061005b5f395ff3fe608060405234801561000f575f5ffd5b5060043610610055575f3560e01c806311dc470314610059578063365b98b2146100755780638da5cb5b146100a5578063d9207d1b146100c3578063e1d81736146100f3575b5f5ffd5b610073600480360381019061006e9190610487565b61010f565b005b61008f600480360381019061008a9190610487565b61025b565b60405161009c91906104cc565b60405180910390f35b6100ad610278565b6040516100ba9190610524565b60405180910390f35b6100dd60048036038101906100d891906106d0565b61029c565b6040516100ea9190610716565b60405180910390f35b61010d60048036038101906101089190610487565b6102fa565b005b5f5f9054906101000a900473ffffffffffffffffffffffffffffffffffffffff1673ffffffffffffffffffffffffffffffffffffffff163373ffffffffffffffffffffffffffffffffffffffff161461019d576040517f08c379a000000000000000000000000000000000000000000000000000000000815260040161019490610789565b60405180910390fd5b60015f8281526020019081526020015f205f9054906101000a900460ff166101fa576040517f08c379a00000000000000000000000000000000000000000000000000000000081526004016101f1906107f1565b60405180910390fd5b5f60015f8381526020019081526020015f205f6101000a81548160ff021916908315150217905550807ff0d3ab3a46c77451865b0988d1c7d12d94cac2c11439e3f750047808cd0031d660405161025090610859565b60405180910390a250565b6001602052805f5260405f205f915054906101000a900460ff1681565b5f5f9054906101000a900473ffffffffffffffffffffffffffffffffffffffff1681565b5f5f5f90505f5f90505b60048160ff1610156102f057838160ff16600481106102c8576102c7610877565b5b602002015160f81c826102db91906108d1565b915080806102e890610905565b9150506102a6565b5080915050919050565b5f5f9054906101000a900473ffffffffffffffffffffffffffffffffffffffff1673ffffffffffffffffffffffffffffffffffffffff163373ffffffffffffffffffffffffffffffffffffffff1614610388576040517f08c379a000000000000000000000000000000000000000000000000000000000815260040161037f90610789565b60405180910390fd5b60015f8281526020019081526020015f205f9054906101000a900460ff16156103e6576040517f08c379a00000000000000000000000000000000000000000000000000000000081526004016103dd90610977565b60405180910390fd5b6001805f8381526020019081526020015f205f6101000a81548160ff021916908315150217905550807f7383aa0b626a44cdb9c3eb86baced64553430dbca760cdc33d78288614586f3c60405161043c906109df565b60405180910390a250565b5f604051905090565b5f5ffd5b5f819050919050565b61046681610454565b8114610470575f5ffd5b50565b5f813590506104818161045d565b92915050565b5f6020828403121561049c5761049b610450565b5b5f6104a984828501610473565b91505092915050565b5f8115159050919050565b6104c6816104b2565b82525050565b5f6020820190506104df5f8301846104bd565b92915050565b5f73ffffffffffffffffffffffffffffffffffffffff82169050919050565b5f61050e826104e5565b9050919050565b61051e81610504565b82525050565b5f6020820190506105375f830184610515565b92915050565b5f5ffd5b5f601f19601f8301169050919050565b7f4e487b71000000000000000000000000000000000000000000000000000000005f52604160045260245ffd5b61058782610541565b810181811067ffffffffffffffff821117156105a6576105a5610551565b5b80604052505050565b5f6105b8610447565b90506105c4828261057e565b919050565b5f67ffffffffffffffff8211156105e3576105e2610551565b5b602082029050919050565b5f5ffd5b5f7fff0000000000000000000000000000000000000000000000000000000000000082169050919050565b610626816105f2565b8114610630575f5ffd5b50565b5f813590506106418161061d565b92915050565b5f610659610654846105c9565b6105af565b90508060208402830185811115610673576106726105ee565b5b835b8181101561069c57806106888882610633565b845260208401935050602081019050610675565b5050509392505050565b5f82601f8301126106ba576106b961053d565b5b60046106c7848285610647565b91505092915050565b5f608082840312156106e5576106e4610450565b5b5f6106f2848285016106a6565b91505092915050565b5f60ff82169050919050565b610710816106fb565b82525050565b5f6020820190506107295f830184610707565b92915050565b5f82825260208201905092915050565b7f4e6f74206f776e657200000000000000000000000000000000000000000000005f82015250565b5f61077360098361072f565b915061077e8261073f565b602082019050919050565b5f6020820190508181035f8301526107a081610767565b9050919050565b7f5573657220646f6573206e6f74206578697374000000000000000000000000005f82015250565b5f6107db60138361072f565b91506107e6826107a7565b602082019050919050565b5f6020820190508181035f830152610808816107cf565b9050919050565b7f5573657220686173206265656e2072656d6f76656400000000000000000000005f82015250565b5f61084360158361072f565b915061084e8261080f565b602082019050919050565b5f6020820190508181035f83015261087081610837565b9050919050565b7f4e487b71000000000000000000000000000000000000000000000000000000005f52603260045260245ffd5b7f4e487b71000000000000000000000000000000000000000000000000000000005f52601160045260245ffd5b5f6108db826106fb565b91506108e6836106fb565b9250828201905060ff8111156108ff576108fe6108a4565b5b92915050565b5f61090f826106fb565b915060ff8203610922576109216108a4565b5b600182019050919050565b7f5573657220616c726561647920657869737473000000000000000000000000005f82015250565b5f61096160138361072f565b915061096c8261092d565b602082019050919050565b5f6020820190508181035f83015261098e81610955565b9050919050565b7f5573657220686173206265656e206164646564000000000000000000000000005f82015250565b5f6109c960138361072f565b91506109d482610995565b602082019050919050565b5f6020820190508181035f8301526109f6816109bd565b905091905056fea2646970667358221220a118fae6905ab5965ec7a19b8b53f76376155d6dc9190ad6bf6f42d734f0582e64736f6c634300081e0033",
					"opcodes": "PUSH1 0x80 PUSH1 0x40 MSTORE CALLVALUE DUP1 ISZERO PUSH1 0xE JUMPI PUSH0 PUSH0 REVERT JUMPDEST POP CALLER PUSH0 PUSH0 PUSH2 0x100 EXP DUP2 SLOAD DUP2 PUSH20 0xFFFFFFFFFFFFFFFFFFFFFFFFFFFFFFFFFFFFFFFF MUL NOT AND SWAP1 DUP4 PUSH20 0xFFFFFFFFFFFFFFFFFFFFFFFFFFFFFFFFFFFFFFFF AND MUL OR SWAP1 SSTORE POP PUSH2 0xA33 DUP1 PUSH2 0x5B PUSH0 CODECOPY PUSH0 RETURN INVALID PUSH1 0x80 PUSH1 0x40 MSTORE CALLVALUE DUP1 ISZERO PUSH2 0xF JUMPI PUSH0 PUSH0 REVERT JUMPDEST POP PUSH1 0x4 CALLDATASIZE LT PUSH2 0x55 JUMPI PUSH0 CALLDATALOAD PUSH1 0xE0 SHR DUP1 PUSH4 0x11DC4703 EQ PUSH2 0x59 JUMPI DUP1 PUSH4 0x365B98B2 EQ PUSH2 0x75 JUMPI DUP1 PUSH4 0x8DA5CB5B EQ PUSH2 0xA5 JUMPI DUP1 PUSH4 0xD9207D1B EQ PUSH2 0xC3 JUMPI DUP1 PUSH4 0xE1D81736 EQ PUSH2 0xF3 JUMPI JUMPDEST PUSH0 PUSH0 REVERT JUMPDEST PUSH2 0x73 PUSH1 0x4 DUP1 CALLDATASIZE SUB DUP2 ADD SWAP1 PUSH2 0x6E SWAP2 SWAP1 PUSH2 0x487 JUMP JUMPDEST PUSH2 0x10F JUMP JUMPDEST STOP JUMPDEST PUSH2 0x8F PUSH1 0x4 DUP1 CALLDATASIZE SUB DUP2 ADD SWAP1 PUSH2 0x8A SWAP2 SWAP1 PUSH2 0x487 JUMP JUMPDEST PUSH2 0x25B JUMP JUMPDEST PUSH1 0x40 MLOAD PUSH2 0x9C SWAP2 SWAP1 PUSH2 0x4CC JUMP JUMPDEST PUSH1 0x40 MLOAD DUP1 SWAP2 SUB SWAP1 RETURN JUMPDEST PUSH2 0xAD PUSH2 0x278 JUMP JUMPDEST PUSH1 0x40 MLOAD PUSH2 0xBA SWAP2 SWAP1 PUSH2 0x524 JUMP JUMPDEST PUSH1 0x40 MLOAD DUP1 SWAP2 SUB SWAP1 RETURN JUMPDEST PUSH2 0xDD PUSH1 0x4 DUP1 CALLDATASIZE SUB DUP2 ADD SWAP1 PUSH2 0xD8 SWAP2 SWAP1 PUSH2 0x6D0 JUMP JUMPDEST PUSH2 0x29C JUMP JUMPDEST PUSH1 0x40 MLOAD PUSH2 0xEA SWAP2 SWAP1 PUSH2 0x716 JUMP JUMPDEST PUSH1 0x40 MLOAD DUP1 SWAP2 SUB SWAP1 RETURN JUMPDEST PUSH2 0x10D PUSH1 0x4 DUP1 CALLDATASIZE SUB DUP2 ADD SWAP1 PUSH2 0x108 SWAP2 SWAP1 PUSH2 0x487 JUMP JUMPDEST PUSH2 0x2FA JUMP JUMPDEST STOP JUMPDEST PUSH0 PUSH0 SWAP1 SLOAD SWAP1 PUSH2 0x100 EXP SWAP1 DIV PUSH20 0xFFFFFFFFFFFFFFFFFFFFFFFFFFFFFFFFFFFFFFFF AND PUSH20 0xFFFFFFFFFFFFFFFFFFFFFFFFFFFFFFFFFFFFFFFF AND CALLER PUSH20 0xFFFFFFFFFFFFFFFFFFFFFFFFFFFFFFFFFFFFFFFF AND EQ PUSH2 0x19D JUMPI PUSH1 0x40 MLOAD PUSH32 0x8C379A000000000000000000000000000000000000000000000000000000000 DUP2 MSTORE PUSH1 0x4 ADD PUSH2 0x194 SWAP1 PUSH2 0x789 JUMP JUMPDEST PUSH1 0x40 MLOAD DUP1 SWAP2 SUB SWAP1 REVERT JUMPDEST PUSH1 0x1 PUSH0 DUP3 DUP2 MSTORE PUSH1 0x20 ADD SWAP1 DUP2 MSTORE PUSH1 0x20 ADD PUSH0 KECCAK256 PUSH0 SWAP1 SLOAD SWAP1 PUSH2 0x100 EXP SWAP1 DIV PUSH1 0xFF AND PUSH2 0x1FA JUMPI PUSH1 0x40 MLOAD PUSH32 0x8C379A000000000000000000000000000000000000000000000000000000000 DUP2 MSTORE PUSH1 0x4 ADD PUSH2 0x1F1 SWAP1 PUSH2 0x7F1 JUMP JUMPDEST PUSH1 0x40 MLOAD DUP1 SWAP2 SUB SWAP1 REVERT JUMPDEST PUSH0 PUSH1 0x1 PUSH0 DUP4 DUP2 MSTORE PUSH1 0x20 ADD SWAP1 DUP2 MSTORE PUSH1 0x20 ADD PUSH0 KECCAK256 PUSH0 PUSH2 0x100 EXP DUP2 SLOAD DUP2 PUSH1 0xFF MUL NOT AND SWAP1 DUP4 ISZERO ISZERO MUL OR SWAP1 SSTORE POP DUP1 PUSH32 0xF0D3AB3A46C77451865B0988D1C7D12D94CAC2C11439E3F750047808CD0031D6 PUSH1 0x40 MLOAD PUSH2 0x250 SWAP1 PUSH2 0x859 JUMP JUMPDEST PUSH1 0x40 MLOAD DUP1 SWAP2 SUB SWAP1 LOG2 POP JUMP JUMPDEST PUSH1 0x1 PUSH1 0x20 MSTORE DUP1 PUSH0 MSTORE PUSH1 0x40 PUSH0 KECCAK256 PUSH0 SWAP2 POP SLOAD SWAP1 PUSH2 0x100 EXP SWAP1 DIV PUSH1 0xFF AND DUP2 JUMP JUMPDEST PUSH0 PUSH0 SWAP1 SLOAD SWAP1 PUSH2 0x100 EXP SWAP1 DIV PUSH20 0xFFFFFFFFFFFFFFFFFFFFFFFFFFFFFFFFFFFFFFFF AND DUP2 JUMP JUMPDEST PUSH0 PUSH0 PUSH0 SWAP1 POP PUSH0 PUSH0 SWAP1 POP JUMPDEST PUSH1 0x4 DUP2 PUSH1 0xFF AND LT ISZERO PUSH2 0x2F0 JUMPI DUP4 DUP2 PUSH1 0xFF AND PUSH1 0x4 DUP2 LT PUSH2 0x2C8 JUMPI PUSH2 0x2C7 PUSH2 0x877 JUMP JUMPDEST JUMPDEST PUSH1 0x20 MUL ADD MLOAD PUSH1 0xF8 SHR DUP3 PUSH2 0x2DB SWAP2 SWAP1 PUSH2 0x8D1 JUMP JUMPDEST SWAP2 POP DUP1 DUP1 PUSH2 0x2E8 SWAP1 PUSH2 0x905 JUMP JUMPDEST SWAP2 POP POP PUSH2 0x2A6 JUMP JUMPDEST POP DUP1 SWAP2 POP POP SWAP2 SWAP1 POP JUMP JUMPDEST PUSH0 PUSH0 SWAP1 SLOAD SWAP1 PUSH2 0x100 EXP SWAP1 DIV PUSH20 0xFFFFFFFFFFFFFFFFFFFFFFFFFFFFFFFFFFFFFFFF AND PUSH20 0xFFFFFFFFFFFFFFFFFFFFFFFFFFFFFFFFFFFFFFFF AND CALLER PUSH20 0xFFFFFFFFFFFFFFFFFFFFFFFFFFFFFFFFFFFFFFFF AND EQ PUSH2 0x388 JUMPI PUSH1 0x40 MLOAD PUSH32 0x8C379A000000000000000000000000000000000000000000000000000000000 DUP2 MSTORE PUSH1 0x4 ADD PUSH2 0x37F SWAP1 PUSH2 0x789 JUMP JUMPDEST PUSH1 0x40 MLOAD DUP1 SWAP2 SUB SWAP1 REVERT JUMPDEST PUSH1 0x1 PUSH0 DUP3 DUP2 MSTORE PUSH1 0x20 ADD SWAP1 DUP2 MSTORE PUSH1 0x20 ADD PUSH0 KECCAK256 PUSH0 SWAP1 SLOAD SWAP1 PUSH2 0x100 EXP SWAP1 DIV PUSH1 0xFF AND ISZERO PUSH2 0x3E6 JUMPI PUSH1 0x40 MLOAD PUSH32 0x8C379A000000000000000000000000000000000000000000000000000000000 DUP2 MSTORE PUSH1 0x4 ADD PUSH2 0x3DD SWAP1 PUSH2 0x977 JUMP JUMPDEST PUSH1 0x40 MLOAD DUP1 SWAP2 SUB SWAP1 REVERT JUMPDEST PUSH1 0x1 DUP1 PUSH0 DUP4 DUP2 MSTORE PUSH1 0x20 ADD SWAP1 DUP2 MSTORE PUSH1 0x20 ADD PUSH0 KECCAK256 PUSH0 PUSH2 0x100 EXP DUP2 SLOAD DUP2 PUSH1 0xFF MUL NOT AND SWAP1 DUP4 ISZERO ISZERO MUL OR SWAP1 SSTORE POP DUP1 PUSH32 0x7383AA0B626A44CDB9C3EB86BACED64553430DBCA760CDC33D78288614586F3C PUSH1 0x40 MLOAD PUSH2 0x43C SWAP1 PUSH2 0x9DF JUMP JUMPDEST PUSH1 0x40 MLOAD DUP1 SWAP2 SUB SWAP1 LOG2 POP JUMP JUMPDEST PUSH0 PUSH1 0x40 MLOAD SWAP1 POP SWAP1 JUMP JUMPDEST PUSH0 PUSH0 REVERT JUMPDEST PUSH0 DUP2 SWAP1 POP SWAP2 SWAP1 POP JUMP JUMPDEST PUSH2 0x466 DUP2 PUSH2 0x454 JUMP JUMPDEST DUP2 EQ PUSH2 0x470 JUMPI PUSH0 PUSH0 REVERT JUMPDEST POP JUMP JUMPDEST PUSH0 DUP2 CALLDATALOAD SWAP1 POP PUSH2 0x481 DUP2 PUSH2 0x45D JUMP JUMPDEST SWAP3 SWAP2 POP POP JUMP JUMPDEST PUSH0 PUSH1 0x20 DUP3 DUP5 SUB SLT ISZERO PUSH2 0x49C JUMPI PUSH2 0x49B PUSH2 0x450 JUMP JUMPDEST JUMPDEST PUSH0 PUSH2 0x4A9 DUP5 DUP3 DUP6 ADD PUSH2 0x473 JUMP JUMPDEST SWAP2 POP POP SWAP3 SWAP2 POP POP JUMP JUMPDEST PUSH0 DUP2 ISZERO ISZERO SWAP1 POP SWAP2 SWAP1 POP JUMP JUMPDEST PUSH2 0x4C6 DUP2 PUSH2 0x4B2 JUMP JUMPDEST DUP3 MSTORE POP POP JUMP JUMPDEST PUSH0 PUSH1 0x20 DUP3 ADD SWAP1 POP PUSH2 0x4DF PUSH0 DUP4 ADD DUP5 PUSH2 0x4BD JUMP JUMPDEST SWAP3 SWAP2 POP POP JUMP JUMPDEST PUSH0 PUSH20 0xFFFFFFFFFFFFFFFFFFFFFFFFFFFFFFFFFFFFFFFF DUP3 AND SWAP1 POP SWAP2 SWAP1 POP JUMP JUMPDEST PUSH0 PUSH2 0x50E DUP3 PUSH2 0x4E5 JUMP JUMPDEST SWAP1 POP SWAP2 SWAP1 POP JUMP JUMPDEST PUSH2 0x51E DUP2 PUSH2 0x504 JUMP JUMPDEST DUP3 MSTORE POP POP JUMP JUMPDEST PUSH0 PUSH1 0x20 DUP3 ADD SWAP1 POP PUSH2 0x537 PUSH0 DUP4 ADD DUP5 PUSH2 0x515 JUMP JUMPDEST SWAP3 SWAP2 POP POP JUMP JUMPDEST PUSH0 PUSH0 REVERT JUMPDEST PUSH0 PUSH1 0x1F NOT PUSH1 0x1F DUP4 ADD AND SWAP1 POP SWAP2 SWAP1 POP JUMP JUMPDEST PUSH32 0x4E487B7100000000000000000000000000000000000000000000000000000000 PUSH0 MSTORE PUSH1 0x41 PUSH1 0x4 MSTORE PUSH1 0x24 PUSH0 REVERT JUMPDEST PUSH2 0x587 DUP3 PUSH2 0x541 JUMP JUMPDEST DUP2 ADD DUP2 DUP2 LT PUSH8 0xFFFFFFFFFFFFFFFF DUP3 GT OR ISZERO PUSH2 0x5A6 JUMPI PUSH2 0x5A5 PUSH2 0x551 JUMP JUMPDEST JUMPDEST DUP1 PUSH1 0x40 MSTORE POP POP POP JUMP JUMPDEST PUSH0 PUSH2 0x5B8 PUSH2 0x447 JUMP JUMPDEST SWAP1 POP PUSH2 0x5C4 DUP3 DUP3 PUSH2 0x57E JUMP JUMPDEST SWAP2 SWAP1 POP JUMP JUMPDEST PUSH0 PUSH8 0xFFFFFFFFFFFFFFFF DUP3 GT ISZERO PUSH2 0x5E3 JUMPI PUSH2 0x5E2 PUSH2 0x551 JUMP JUMPDEST JUMPDEST PUSH1 0x20 DUP3 MUL SWAP1 POP SWAP2 SWAP1 POP JUMP JUMPDEST PUSH0 PUSH0 REVERT JUMPDEST PUSH0 PUSH32 0xFF00000000000000000000000000000000000000000000000000000000000000 DUP3 AND SWAP1 POP SWAP2 SWAP1 POP JUMP JUMPDEST PUSH2 0x626 DUP2 PUSH2 0x5F2 JUMP JUMPDEST DUP2 EQ PUSH2 0x630 JUMPI PUSH0 PUSH0 REVERT JUMPDEST POP JUMP JUMPDEST PUSH0 DUP2 CALLDATALOAD SWAP1 POP PUSH2 0x641 DUP2 PUSH2 0x61D JUMP JUMPDEST SWAP3 SWAP2 POP POP JUMP JUMPDEST PUSH0 PUSH2 0x659 PUSH2 0x654 DUP5 PUSH2 0x5C9 JUMP JUMPDEST PUSH2 0x5AF JUMP JUMPDEST SWAP1 POP DUP1 PUSH1 0x20 DUP5 MUL DUP4 ADD DUP6 DUP2 GT ISZERO PUSH2 0x673 JUMPI PUSH2 0x672 PUSH2 0x5EE JUMP JUMPDEST JUMPDEST DUP4 JUMPDEST DUP2 DUP2 LT ISZERO PUSH2 0x69C JUMPI DUP1 PUSH2 0x688 DUP9 DUP3 PUSH2 0x633 JUMP JUMPDEST DUP5 MSTORE PUSH1 0x20 DUP5 ADD SWAP4 POP POP PUSH1 0x20 DUP2 ADD SWAP1 POP PUSH2 0x675 JUMP JUMPDEST POP POP POP SWAP4 SWAP3 POP POP POP JUMP JUMPDEST PUSH0 DUP3 PUSH1 0x1F DUP4 ADD SLT PUSH2 0x6BA JUMPI PUSH2 0x6B9 PUSH2 0x53D JUMP JUMPDEST JUMPDEST PUSH1 0x4 PUSH2 0x6C7 DUP5 DUP3 DUP6 PUSH2 0x647 JUMP JUMPDEST SWAP2 POP POP SWAP3 SWAP2 POP POP JUMP JUMPDEST PUSH0 PUSH1 0x80 DUP3 DUP5 SUB SLT ISZERO PUSH2 0x6E5 JUMPI PUSH2 0x6E4 PUSH2 0x450 JUMP JUMPDEST JUMPDEST PUSH0 PUSH2 0x6F2 DUP5 DUP3 DUP6 ADD PUSH2 0x6A6 JUMP JUMPDEST SWAP2 POP POP SWAP3 SWAP2 POP POP JUMP JUMPDEST PUSH0 PUSH1 0xFF DUP3 AND SWAP1 POP SWAP2 SWAP1 POP JUMP JUMPDEST PUSH2 0x710 DUP2 PUSH2 0x6FB JUMP JUMPDEST DUP3 MSTORE POP POP JUMP JUMPDEST PUSH0 PUSH1 0x20 DUP3 ADD SWAP1 POP PUSH2 0x729 PUSH0 DUP4 ADD DUP5 PUSH2 0x707 JUMP JUMPDEST SWAP3 SWAP2 POP POP JUMP JUMPDEST PUSH0 DUP3 DUP3 MSTORE PUSH1 0x20 DUP3 ADD SWAP1 POP SWAP3 SWAP2 POP POP JUMP JUMPDEST PUSH32 0x4E6F74206F776E65720000000000000000000000000000000000000000000000 PUSH0 DUP3 ADD MSTORE POP JUMP JUMPDEST PUSH0 PUSH2 0x773 PUSH1 0x9 DUP4 PUSH2 0x72F JUMP JUMPDEST SWAP2 POP PUSH2 0x77E DUP3 PUSH2 0x73F JUMP JUMPDEST PUSH1 0x20 DUP3 ADD SWAP1 POP SWAP2 SWAP1 POP JUMP JUMPDEST PUSH0 PUSH1 0x20 DUP3 ADD SWAP1 POP DUP2 DUP2 SUB PUSH0 DUP4 ADD MSTORE PUSH2 0x7A0 DUP2 PUSH2 0x767 JUMP JUMPDEST SWAP1 POP SWAP2 SWAP1 POP JUMP JUMPDEST PUSH32 0x5573657220646F6573206E6F7420657869737400000000000000000000000000 PUSH0 DUP3 ADD MSTORE POP JUMP JUMPDEST PUSH0 PUSH2 0x7DB PUSH1 0x13 DUP4 PUSH2 0x72F JUMP JUMPDEST SWAP2 POP PUSH2 0x7E6 DUP3 PUSH2 0x7A7 JUMP JUMPDEST PUSH1 0x20 DUP3 ADD SWAP1 POP SWAP2 SWAP1 POP JUMP JUMPDEST PUSH0 PUSH1 0x20 DUP3 ADD SWAP1 POP DUP2 DUP2 SUB PUSH0 DUP4 ADD MSTORE PUSH2 0x808 DUP2 PUSH2 0x7CF JUMP JUMPDEST SWAP1 POP SWAP2 SWAP1 POP JUMP JUMPDEST PUSH32 0x5573657220686173206265656E2072656D6F7665640000000000000000000000 PUSH0 DUP3 ADD MSTORE POP JUMP JUMPDEST PUSH0 PUSH2 0x843 PUSH1 0x15 DUP4 PUSH2 0x72F JUMP JUMPDEST SWAP2 POP PUSH2 0x84E DUP3 PUSH2 0x80F JUMP JUMPDEST PUSH1 0x20 DUP3 ADD SWAP1 POP SWAP2 SWAP1 POP JUMP JUMPDEST PUSH0 PUSH1 0x20 DUP3 ADD SWAP1 POP DUP2 DUP2 SUB PUSH0 DUP4 ADD MSTORE PUSH2 0x870 DUP2 PUSH2 0x837 JUMP JUMPDEST SWAP1 POP SWAP2 SWAP1 POP JUMP JUMPDEST PUSH32 0x4E487B7100000000000000000000000000000000000000000000000000000000 PUSH0 MSTORE PUSH1 0x32 PUSH1 0x4 MSTORE PUSH1 0x24 PUSH0 REVERT JUMPDEST PUSH32 0x4E487B7100000000000000000000000000000000000000000000000000000000 PUSH0 MSTORE PUSH1 0x11 PUSH1 0x4 MSTORE PUSH1 0x24 PUSH0 REVERT JUMPDEST PUSH0 PUSH2 0x8DB DUP3 PUSH2 0x6FB JUMP JUMPDEST SWAP2 POP PUSH2 0x8E6 DUP4 PUSH2 0x6FB JUMP JUMPDEST SWAP3 POP DUP3 DUP3 ADD SWAP1 POP PUSH1 0xFF DUP2 GT ISZERO PUSH2 0x8FF JUMPI PUSH2 0x8FE PUSH2 0x8A4 JUMP JUMPDEST JUMPDEST SWAP3 SWAP2 POP POP JUMP JUMPDEST PUSH0 PUSH2 0x90F DUP3 PUSH2 0x6FB JUMP JUMPDEST SWAP2 POP PUSH1 0xFF DUP3 SUB PUSH2 0x922 JUMPI PUSH2 0x921 PUSH2 0x8A4 JUMP JUMPDEST JUMPDEST PUSH1 0x1 DUP3 ADD SWAP1 POP SWAP2 SWAP1 POP JUMP JUMPDEST PUSH32 0x5573657220616C72656164792065786973747300000000000000000000000000 PUSH0 DUP3 ADD MSTORE POP JUMP JUMPDEST PUSH0 PUSH2 0x961 PUSH1 0x13 DUP4 PUSH2 0x72F JUMP JUMPDEST SWAP2 POP PUSH2 0x96C DUP3 PUSH2 0x92D JUMP JUMPDEST PUSH1 0x20 DUP3 ADD SWAP1 POP SWAP2 SWAP1 POP JUMP JUMPDEST PUSH0 PUSH1 0x20 DUP3 ADD SWAP1 POP DUP2 DUP2 SUB PUSH0 DUP4 ADD MSTORE PUSH2 0x98E DUP2 PUSH2 0x955 JUMP JUMPDEST SWAP1 POP SWAP2 SWAP1 POP JUMP JUMPDEST PUSH32 0x5573657220686173206265656E20616464656400000000000000000000000000 PUSH0 DUP3 ADD MSTORE POP JUMP JUMPDEST PUSH0 PUSH2 0x9C9 PUSH1 0x13 DUP4 PUSH2 0x72F JUMP JUMPDEST SWAP2 POP PUSH2 0x9D4 DUP3 PUSH2 0x995 JUMP JUMPDEST PUSH1 0x20 DUP3 ADD SWAP1 POP SWAP2 SWAP1 POP JUMP JUMPDEST PUSH0 PUSH1 0x20 DUP3 ADD SWAP1 POP DUP2 DUP2 SUB PUSH0 DUP4 ADD MSTORE PUSH2 0x9F6 DUP2 PUSH2 0x9BD JUMP JUMPDEST SWAP1 POP SWAP2 SWAP1 POP JUMP INVALID LOG2 PUSH5 0x6970667358 0x22 SLT KECCAK256 LOG1 XOR STATICCALL DUPN 0x90 GAS 0xB5 SWAP7 MCOPY 0xC7 LOG1 SWAP12 DUP12 MSTORE8 0xF7 PUSH4 0x76155D6D 0xC9 NOT EXP 0xD6 0xBF PUSH16 0x42D734F0582E64736F6C634300081E00 CALLER "
				},
				"gasEstimates": {
					"creation": {
						"codeDepositCost": "522200",
						"executionCost": "24818",
						"totalCost": "547018"
					},
					"external": {
						"addUser(uint256)": "31383",
						"getFixedByteArraySum(bytes1[4])": "infinite",
						"owner()": "2529",
						"removeUser(uint256)": "31291",
						"users(uint256)": "2785"
					}
				},
				"methodIdentifiers": {
					"addUser(uint256)": "e1d81736",
					"getFixedByteArraySum(bytes1[4])": "d9207d1b",
					"owner()": "8da5cb5b",
					"removeUser(uint256)": "11dc4703",
					"users(uint256)": "365b98b2"
				}
			},
			"storageLayout": {
				"storage": [
					{
						"astId": 3,
						"contract": "tasks/Task_09.sol:Task_09",
						"label": "owner",
						"offset": 0,
						"slot": "0",
						"type": "t_address"
					},
					{
						"astId": 28,
						"contract": "tasks/Task_09.sol:Task_09",
						"label": "users",
						"offset": 0,
						"slot": "1",
						"type": "t_mapping(t_uint256,t_bool)"
					}
				],
				"types": {
					"t_address": {
						"encoding": "inplace",
						"label": "address",
						"numberOfBytes": "20"
					},
					"t_bool": {
						"encoding": "inplace",
						"label": "bool",
						"numberOfBytes": "1"
					},
					"t_mapping(t_uint256,t_bool)": {
						"encoding": "mapping",
						"key": "t_uint256",
						"label": "mapping(uint256 => bool)",
						"numberOfBytes": "32",
						"value": "t_bool"
					},
					"t_uint256": {
						"encoding": "inplace",
						"label": "uint256",
						"numberOfBytes": "32"
					}
				}
			},
			"userdoc": {
				"kind": "user",
				"methods": {},
				"version": 1
			}
		}
	}
}